:100000000C946E020C9494020C9494020C9494023E
:100010000C9494020C9494020C9494020C94940208
:100020000C9494020C9494020C9494020C949402F8
:100030000C9494020C9494020C94FF0D0C94940272
:100040000C9494020C9494020C9494020C949402D8
:100050000C9494020C9494020C9494020C949402C8
:100060000C9494020C9494020C9494020C949402B8
:100070000C9494020C9494020C9494020C949402A8
:100080000C9494020C9494020C9494020C94940298
:100090000C9494020C9494020C9494020C94940288
:1000A0000C9494020C9494020C9494020C94940278
:1000B0000C9494020C9494020C94D8280C949402FE
:1000C0000C9494020C9494020C9494020C94940258
:1000D0000C9494020C9494020C9494020C94940248
:1000E0000C9494020C9494020C945C270C9494024B
:1000F0000C94BE270C9494020C9494020C949402D9
:100100000C9494020C9494020C9494020C94940217
:100110000C9494020C9494020C9494020C94940207
:100120000C9494020C9494020C9494020C949402F7
:100130000C9494020C9494020C9494020C949402E7
:100140000C9494020C9494020C9494020C949402D7
:100150000C9494020C9494020C9494020C949402C7
:100160000C9494020C9494020C9494020C949402B7
:100170000C9494020C9494020C9494020C949402A7
:100180000C9494020C9494020C9494020C94940297
:100190000C9494020C9494020C9494020C94940287
:1001A0000C9494020C9494020C9494020C94940277
:1001B0000C9494020C9494020C9494020C94940267
:1001C0000C9494020C9494020C9494020C94940257
:1001D0000C9494020C9494020C9494020C94940247
:1001E0000C9494020C9494020C9494020C94940237
:1001F0000C9494020C9494020C9494028B0E911122
:10020000D21244158920892059176D178920892019
:100210008920892089208920892089208920892096
:100220008920892089208920892089208920892086
:100230008920892089208920892089208920892076
:100240008920892089208920892089208920892066
:100250008920892089208920892089208920892056
:100260008920892089208920892089208920892046
:100270008920892089208920892089208920892036
:100280008920892089208920892089208920892026
:100290008920892089208920892089208920892016
:1002A0008920892089208920892089208920892006
:1002B00089208920892089208920892089208920F6
:1002C00089208920892089208920892089208920E6
:1002D00089208920892089208920892089208920D6
:1002E00089208920892089208920892089208920C6
:1002F000892089208920892089208920F2172019C6
:10030000431C571D8A1C201ECC1EDC1E2E202813C9
:1003100034133413281328133413341328134013BD
:1003200040132813281328132813401340132813AD
:10033000401340132813401328132813281328139D
:100340002813561356135613561356135613561393
:100350007E137E137E135B13631379137C137C135C
:100360007C137C137C137C137E135E135E133E257B
:100370005425422742274227422742274227422725
:1003800042274227422742274227422742276A25FF
:100390006E25712578259E2542275626422742271D
:1003A0004227422742274227422742274227422705
:1003B00042274227422742274227422742274227F5
:1003C00042274227422742274227422742274227E5
:1003D00042274227DD2508262F264227422742278B
:1003E0004227B62542274227422742274227422753
:1003F00042274227422742274227422742274227B5
:1004000042274227422742274227422742274227A4
:100410004227422742274227422742274227422794
:100420004227422742274227422742274227D926EE
:10043000F52628270C9440130C946D170C949E25D8
:100440000C9491110C94201E0C943E250C947E1358
:100450000C9471250C94F2170C94431C0C947C138F
:100460000C9489200C9434130C9456260C946E250D
:100470000C942E200C946A250C94DC1E0C94DD2523
:100480000C9479130C94B6250C9478250C94D926E9
:100490000C94F5260C94CC1E0C942F260C94422719
:1004A0000C948B0E0C9444150C94571D0C9428132B
:1004B0000C9428270C948A1C0C9408260C94631323
:1004C0000C9420190C9454250C9459170C945B131C
:1004D0000C94D2120C945E130C94561311241FBE6C
:1004E000CFEFCDBFDFE3DEBF00E00CBF18BE19BE0B
:1004F0001ABE1BBE10E2A0E0B0E2E4EAF2E500E0C2
:100500000BBF02C007900D92A83EB107D9F71BBEE2
:100510002AE3A8EEB0E201C01D92A33AB207E1F7C8
:100520000E94EE0B0C9450290C94000090E0FC010A
:10053000EE0FFF1FEE0FFF1FEE0FFF1FE55FF44DE5
:100540002781222364F42DE1289FF001299FF00DDB
:100550001124E55EF74C2281211127C02DC0FC013A
:10056000EE0FFF1FEE0FFF1FEE0FFF1FE55FF44DB5
:100570002681222364F02DE1289FF001299FF00DB0
:100580001124E55EF74C2081211111C015C02223F2
:1005900084F42DE1289FF001299FF00D1124E55EE0
:1005A000F74C2181211107C007C021E005C021E0DF
:1005B00003C020E001C021E0222319F1FC01EE0F6D
:1005C000FF1FEE0FFF1FEE0FFF1FE55FF44D2181B0
:1005D000222394F4FC01E056FD4D208125FF0CC040
:1005E000E6E1FAE31382128211821082FC01EA5CD6
:1005F000FD4C21E0208309C0FC01EA5CFD4C108227
:1006000004C0FC01EA5CFD4C108210921B3A80E0B1
:100610000BC0E82FF0E0EA5CFD4C9081992319F0C3
:1006200091E090931B3A8F5F803198F3089540E0FA
:100630001BC0242F30E0F901EC5FF54C9081977FCF
:1006400090835DE1529FF001539FF00D1124E55E10
:10065000F74CE80FF11D5081552329F0F901EC5FAB
:10066000F54C986090834F5F403118F381E08093A0
:100670006F22089580E001C08F5F8031E8F38FEF33
:10068000089580E001C08F5F8031E8F30895E0EACB
:10069000F2E240894B7F408B50E080E064C0282F1D
:1006A00030E09DE1929FF001939FF00D1124E55EF3
:1006B000F74C978591110CC09DE1929FF001939F9B
:1006C000F00D1124E55EF74C9685992309F44AC094
:1006D000F901E059FD4D90819150923008F042C0EF
:1006E000F901EE0FFF1FEE0FFF1FEE0FFF1FE55F7B
:1006F000F44D9781992324F1F901EE0FFF1FEE0FBE
:10070000FF1FEE0FFF1FE55FF44D968199235CF00C
:100710006DE1629FF001639FF00D1124E55EF74CDF
:10072000678961110DC09923ECF49DE1929FF0015E
:10073000939FF00D1124E55EF74C908D992391F075
:10074000F901EE0FFF1FEE0FFF1FEE0FFF1FE55F1A
:10075000F44D9181992334F4F901E056FD4D9081D7
:1007600095FD51E08F5F803108F499CF552319F042
:1007700044604093B0228091B02282FF19C0E09182
:100780008222A1E0AE0FF0E0EB53FC4D80ED8083C0
:10079000E1E0EA0FB0E0AB53BC4D81E08C9391E017
:1007A0009E0F90938222F0E0EB53FC4D808317C0A4
:1007B000E0918222A1E0AE0FF0E0EB53FC4D80ED22
:1007C0008083E1E0EA0FB0E0AB53BC4D81E08C9355
:1007D0008E0F80938222F0E0EB53FC4D108281E07B
:1007E00080936F220895E0EAF2E240894E7F408BC9
:1007F00050E080E05FC0282F30E09DE1929FF00143
:10080000939FF00D1124E55EF74C9585992309F42B
:1008100050C0F901E059FD4D90819150923008F09F
:1008200048C0F901EE0FFF1FEE0FFF1FEE0FFF1F75
:10083000E55FF44D9781992324F1F901EE0FFF1F35
:10084000EE0FFF1FEE0FFF1FE55FF44D968199231A
:100850005CF06DE1629FF001639FF00D1124E55E95
:10086000F74C678961110DC099231CF59DE1929F9A
:10087000F001939FF00D1124E55EF74C908D9923C4
:10088000C1F0F901EE0FFF1FEE0FFF1FEE0FFF1F6C
:10089000E55FF44D9181992364F4F901E056FD4D33
:1008A000908195FD03C092FD03C003C051E001C0DB
:1008B00051E08F5F803108F49ECF552319F04160DD
:1008C0004093B0228091B02280FF19C0E091822233
:1008D000A1E0AE0FF0E0EB53FC4D80ED8083E1E052
:1008E000EA0FB0E0AB53BC4D1C9281E08E0F8093B9
:1008F0008222F0E0EB53FC4D81E0808317C0E09151
:100900008222A1E0AE0FF0E0EB53FC4D80ED80833E
:10091000E1E0EA0FB0E0AB53BC4D1C9281E08E0FDA
:1009200080938222F0E0EB53FC4D108281E08093B3
:100930006F22089540E050E080E0E0C0282F30E0D2
:10094000F901E059FD4D90819150923008F0D5C0E9
:10095000F901EE0FFF1FEE0FFF1FEE0FFF1FE55F08
:10096000F44D97819923ECF59DE1929FF001939FBF
:10097000F00D1124E55EF74C9289992391F0F9016D
:10098000EE0FFF1FEE0FFF1FEE0FFF1FE55FF44D91
:100990009181992334F4F901E056FD4D908195FD44
:1009A00051E09DE1929FF001939FF00D1124E55ECF
:1009B000F74C9589992309F4A0C0F901EE0FFF1FA8
:1009C000EE0FFF1FEE0FFF1FE55FF44D918199239E
:1009D0000CF093C0F901E056FD4D908195FD88C063
:1009E0008CC0F901EE0FFF1FEE0FFF1FEE0FFF1F70
:1009F000E55FF44D96819923ECF19DE1929FF00122
:100A0000939FF00D1124E55EF74C9089992391F0A6
:100A1000F901EE0FFF1FEE0FFF1FEE0FFF1FE55F47
:100A2000F44D9181992334F4F901E056FD4D908104
:100A300095FD51E09DE1929FF001939FF00D1124EF
:100A4000E55EF74C9389992309F457C0F901EE0F3D
:100A5000FF1FEE0FFF1FEE0FFF1FE55FF44D9181AB
:100A600099230CF04AC0F901E056FD4D908195FDA7
:100A700041C043C099230CF040C09DE1929FF0011A
:100A8000939FF00D1124E55EF74C9189992391F025
:100A9000F901EE0FFF1FEE0FFF1FEE0FFF1FE55FC7
:100AA000F44D9181992334F4F901E056FD4D908184
:100AB00095FD51E09DE1929FF001939FF00D11246F
:100AC000E55EF74C94899923C1F0F901EE0FFF1F01
:100AD000EE0FFF1FEE0FFF1FE55FF44D918199238D
:100AE00064F4F901E056FD4D908195FD05C005C007
:100AF00041E003C041E001C041E08F5F803108F474
:100B00001DCFE0EAF2E280898F7C808B552319F0BB
:100B100080628093B022442329F0E0EAF2E28089E7
:100B20008061808B8091B02285FF19C0E091822284
:100B3000A1E0AE0FF0E0EB53FC4D84E88083E1E0F0
:100B4000EA0FB0E0AB53BC4D1C9281E08E0F809356
:100B50008222F0E0EB53FC4D81E0808317C0E091EE
:100B60008222A1E0AE0FF0E0EB53FC4D84E88083DD
:100B7000E1E0EA0FB0E0AB53BC4D1C9281E08E0F78
:100B800080938222F0E0EB53FC4D10828091B022E2
:100B900084FF19C0E0918222A1E0AE0FF0E0EB5398
:100BA000FC4D85E88083E1E0EA0FB0E0AB53BC4D3B
:100BB0001C9281E08E0F80938222F0E0EB53FC4D7B
:100BC00081E0808317C0E0918222A1E0AE0FF0E0C7
:100BD000EB53FC4D85E88083E1E0EA0FB0E0AB53D6
:100BE000BC4D1C9281E08E0F80938222F0E0EB538B
:100BF000FC4D108281E080936F220895282F30E011
:100C0000F901E056FD4D90819D7F9083662309F4A4
:100C10004CC0F901EE0FFF1FEE0FFF1FEE0FFF1F7D
:100C2000E55FF44D478144238CF44DE1429FF00190
:100C3000439FF00D1124E55EF74C45814423A9F153
:100C4000F901E056FD4D926090832FC0F901EE0F3F
:100C5000FF1FEE0FFF1FEE0FFF1FE55FF44D4681F4
:100C600044238CF04DE1429FF001439FF00D11248D
:100C7000E55EF74C43814423C1F0F901E056FD4D98
:100C80009260908312C0442384F44DE1429FF001AE
:100C9000439FF00D1124E55EF74C4481442329F075
:100CA000F901E056FD4D92609083F901E551F64C53
:100CB0001082F901E056FD4D9081492F427091FF5D
:100CC00010C09DE1929FF001939FF00D1124E55E0D
:100CD000F74C9185992329F0F901E551F64C9AE0FA
:100CE00090834423C9F0E0918222A1E0AE0FF0E0AE
:100CF000EB53FC4D92E89083E1E0EA0FB0E0AB5398
:100D0000BC4D8C9381E08E0F80938222F0E0EB53F8
:100D1000FC4D81E0808318C0E0918222A1E0AE0FFB
:100D2000F0E0EB53FC4D93E89083E1E0EA0FB0E094
:100D3000AB53BC4D8C9381E08E0F80938222F0E008
:100D4000EB53FC4D81E0808381E080936F22089516
:100D50001F93CF93DF93182FC82FD0E08DE18C9F86
:100D6000F0018D9FF00D1124E55EF74C848D81110B
:100D7000A5C08DE18C9FF0018D9FF00D1124E55EE3
:100D8000F74C87818823C1F19DE19C9FF0019D9FD5
:100D9000F00D1124E55EF74C9681992369F1FE016F
:100DA000EE0FFF1FEE0FFF1FEE0FFF1FE55FF44D6D
:100DB00081818823BCF4FE01E056FD4D808185FFD2
:100DC00011C0FE01EC56F44D8081811179C061E0C3
:100DD000812F0E94FE0581E0FE01EC56F44D8083D8
:100DE00091E077C060E0812F0E94FE05FE01EC5685
:100DF000F44D108290E06DC0882361F19DE19C9FCD
:100E0000F0019D9FF00D1124E55EF74C9681911144
:100E100021C0FE01E056FD4D808185FF11C0FE011D
:100E2000EC56F44D808181114DC061E0812F0E940C
:100E3000FE0581E0FE01EC56F44D808391E049C04F
:100E400060E0812F0E94FE05FE01EC56F44D1082F9
:100E500090E03FC0811138C08DE18C9FF0018D9FE3
:100E6000F00D1124E55EF74C8681882379F1FE01AF
:100E7000EE0FFF1FEE0FFF1FEE0FFF1FE55FF44D9C
:100E8000818188238CF4FE01EC56F44D8081811120
:100E90001FC061E0812F0E94FE0581E0FE01EC563B
:100EA000F44D808391E015C060E0812F0E94FE0523
:100EB000FE01EC56F44D108290E00BC090E009C0AA
:100EC00091E007C091E005C090E003C090E001C050
:100ED00091E08DE18C9FF0018D9FF00D1124E55E76
:100EE000F74C80858823C1F0FE01E056FD4D8081DE
:100EF00082FF09C061E0812F0E94FE05CC56D44DCF
:100F000081E0888309C0911107C060E0812F0E94B1
:100F1000FE05CC56D44D1882DF91CF911F910895D4
:100F200020E027C04091B02280E890E0022E02C06D
:100F3000959587950A94E2F750E084239523892BB1
:100F400021F088E08093450603C088E08093460640
:100F500080E1809345061092092503C08F5F80933E
:100F60000925809109258530C8F380E180934606E4
:100F70002F5F2830B8F240E08CC08091232181306F
:100F8000D9F5692F28E030E0092E02C03595279564
:100F90000A94E2F720FF30C0A42FB0E0E7E0F0E0D1
:100FA000EA1BFB0BEC5FF54C208130E0092E02C000
:100FB000359527950A94E2F720FF04C088E08093D6
:100FC000450603C088E080934606EFE0F0E0EA1BA8
:100FD000FB0BEC5FF54C208130E002C03595279586
:100FE0006A95E2F720FF04C080E28093450634C092
:100FF00080E28093460630C0642F70E0E7E0F0E0C6
:10100000E61BF70BE056FD4D2081A92F30E0092E9D
:1010100002C0359527950A94E2F720FF04C088E0C6
:101020008093450603C088E080934606EFE0F0E039
:10103000E61BF70BE056FD4D208130E002C03595F0
:101040002795AA95E2F720FF04C080E28093450629
:1010500003C080E280934606E5E4F6E080E1808309
:1010600080E480831092092503C08F5F8093092557
:10107000809109258530C8F3E6E4F6E080E18083BD
:1010800080E480839F5F01C090E0963008F475CFC4
:101090004F5F4830C8F381E08093260610920925FF
:1010A00003C08F5F80930925809109258530C8F39F
:1010B00081E08093250682E0809346061092092500
:1010C00003C08F5F80930925809109258530C8F37F
:1010D00082E080934506089580E090E030E018C0FB
:1010E000FC01E059FD4D2081213089F4FC01EE0F17
:1010F000FF1FEE0FFF1FEE0FFF1FE55FF44D27816F
:1011000022232CF4FC01E95FFD4C2081322B019657
:10111000803191052CF3E0918222A1E0AE0FF0E046
:10112000EB53FC4D80ED8083E1E0EA0FB0E0AB5380
:10113000BC4D82E08C9381E08E0F80938222F0E0A0
:10114000EB53FC4D3083089580E001C08F5F803108
:10115000E8F38FEF0895E0EAF2E240894D7F408B9B
:1011600050E080E011C0282F30E0F901E056FD4D3D
:10117000908192FF08C0F901E059FD4D9081915096
:10118000923008F451E08F5F803168F3809117321C
:10119000811151E0552339F080918F2B882319F06C
:1011A00042604093B022E0EAF2E28089877F808B40
:1011B00080E02BC0282F30E0F901E056FD4D9081F2
:1011C00093FF22C0F901EE0FFF1FEE0FFF1FEE0F7E
:1011D000FF1FE55FF44D47814423B4F44DE1429F86
:1011E000F001439FF00D1124E55EF74C2685222384
:1011F00059F094FF09C09091902B992329F0E0EACF
:10120000F2E290899860908B8F5F803198F281E054
:1012100080936F2208951F93CF93DF9383E991E129
:101220000197F1F700C00000E1E0F6E08FE780836E
:1012300080E8808383E08093E2079CEF90936206CE
:10124000A1E2B6E09EE09C93C1E4D6E095E09883ED
:10125000E2E8F6E094E0908398E0909381069AE7C4
:10126000988391E09C9380830E9445270E949B2055
:101270002FB7E0E5F0E0808181608083E8E6F0E070
:1012800080818E7F80838091510080FFFCCFE0E5DC
:10129000F0E0858198ED94BF82E185838081806153
:1012A0008083E0E4F0E0818180788C6094BF81836A
:1012B0008091510084FFFCCFE0E4F0E08081887FE2
:1012C000846098ED94BF8083E0E5F0E08081817FC9
:1012D0008083E0EBF0E08481807F84832FBF83E90B
:1012E00091E10197F1F700C00000109223211092C4
:1012F000173220E00CC0822F90E0FC01E056FD4D3B
:1013000030E13083FC01EC5FF54C10822F5F20311F
:1013100090F380E48093B0220E949007ECE1FAE31E
:101320001382128211821082E6E1FAE313821282A2
:101330001182108220E01FC0822F90E0FC01EA5C45
:10134000FD4C1082FC01E551F64C1082FC01EE547C
:10135000FD4D1082FC01ED5EFE4D1082FC01EF564A
:10136000F24D1082FC01EC56F44D1082FC01E95F55
:10137000FD4C10822F5F2031F8F210921B3A109230
:1013800081221092153A10922421109282221092FA
:10139000932B1092C42310926E2281E080936A22D4
:1013A000109280221092183210926C2210922521F5
:1013B00080938D2B10928C2B10926B2210926D22A9
:1013C0000E94EB0D6EE170E281E090E00E94F4215A
:1013D0006FE270E280E090E00E94F42161E370E24D
:1013E00081E090E00E94F4211092C3221092C22268
:1013F0000E947328E2EAF0E0808181608083789423
:1014000020E140E752E260E080E70E94AC280E94C1
:10141000D528853021F00E94D5288F3FC1F72DE1D6
:1014200046EF50E260E180E70E94AC280E94D52898
:10143000853021F00E94D5288F3FC1F780E090E0F1
:1014400009C0FC01EA50FF4D2081FC01E55EF74C2C
:10145000208301968E319105A4F325E04EE85BE2EE
:101460006DE280E70E94AC280E94D528853021F0EB
:101470000E94D5288F3FC1F78AE090E00E94450E78
:1014800020E014C0E22FF0E0EE0FFF1FEE0FFF1F71
:10149000EE0FFF1FE55FF44DE80FF11D91E0908323
:1014A0008F5F01C080E0883068F32F5F2031D0F378
:1014B00080E007C0E82FF0E0E550F64C91E0908323
:1014C0008F5F8830B8F38AE090E00E94450EC0E05C
:1014D00007C080E00E94F32281E00E94F322CF5FE8
:1014E000C436B8F310928B2B1092F52010E080C018
:1014F000C12FD0E0FE01EE0FFF1FEE0FFF1FEE0F1A
:10150000FF1FE55FF44D8481882314F080E001C063
:1015100082E0FE01EE0FFF1FEE0FFF1FEE0FFF1F19
:10152000E55FF44D958199230CF48160FE01E0594B
:10153000FD4D90818917D1F1FE01E059FD4D808369
:101540006FE270E280E090E00E94F42162E470E2D9
:1015500081E090E00E94F42184E190E00E94450E39
:101560008DE18C9FF0018D9FF00D1124E55EF74C0D
:1015700081E08083118212828383148215828683A4
:101580001782108611861286138614861586168693
:101590001786108A118A128A138A148A158A168A63
:1015A000178A108E118E128E138E148EFE01E05942
:1015B000FD4D80818230D9F48DE18C9FF0018D9FAB
:1015C000F00D1124E55EF74C128281E08383848361
:1015D0001582168287831186158616861786128ACB
:1015E000158A178A108E118E128E138E148E1F5F1D
:1015F000103108F47DCF10E068C0C12FD0E0FE01AB
:10160000E056FD4D10828DE18C9FF0018D9FF00D15
:101610001124E55EF74C8689882309F451C080E2E5
:10162000FE01E056FD4D80838DE18C9FF0018D9F82
:10163000F00D1124E55EF74C8781882379F08DE168
:101640008C9FF0018D9FF00D1124E55EF74C868193
:10165000811104C061E0812F0E94FE05FE01EE0FA2
:10166000FF1FEE0FFF1FEE0FFF1FE55FF44D81819F
:10167000882304F58DE18C9FF0018D9FF00D1124DE
:10168000E55EF74C8781882379F08DE18C9FF0012E
:101690008D9FF00D1124E55EF74C8681882321F0A3
:1016A00061E0812F0E94FE05C056DD4D888181607A
:1016B00088830AC0C056DD4D88818061888304C05C
:1016C000C056DD4D80E188831F5F103108F495CF4F
:1016D00080E48093B02204C0812F0E9496021F5F95
:1016E0001031D0F30E949A040E94F3030E94470332
:1016F0000E94AB080E94900780E016C0E82FF0E03F
:10170000E059FD4D9081913019F0923039F00BC0C5
:101710009091C2229F5F9093C22205C09091C322F4
:101720009F5F9093C3228F5F803140F361E570E249
:1017300080E090E00E94F4216EE170E281E090E0B0
:101740000E94F4210E94512488EE93E00E94450EED
:10175000E6E6F6E081E0808382E0808384E08083B7
:1017600088E0808380E180936506809148068374D9
:1017700079F481E08093922B6FE270E280E090E058
:101780000E94F42163E570E281E090E00E94F42180
:1017900082E390E00E94450E61E570E280E090E017
:1017A0000E94F42164E670E281E090E00E94F4215E
:1017B0006FE270E280E090E00E94F421609181226B
:1017C00091E1699FB00111246A5D7D4D81E090E057
:1017D0000E94F421DF91CF911F910895CF93DF9361
:1017E000CDB7DEB72997CDBFDEBF0E940B09E6E17A
:1017F000FAE323818DEC289F912D112496959695DF
:10180000969530E3390F3983990F392F330F330F02
:10181000930F291B922F905D9A834AE34B83228179
:10182000289F912D112496959695969530E3390F22
:101830003C83990F392F330F330F930F291B922FAE
:10184000905D9D834E839181989F812D1124869573
:101850008695869520E3280F2F83880F282F220F47
:10186000220F820F981B892F805D888765E770E2C1
:1018700080E090E00E94F4211986BE016F5F7F4FE7
:1018800081E090E00E94F4211092932B1092242189
:101890001092153AE5ECF3E284E9808382E08093CC
:1018A0008222118280E011C0E091822291E09E0F9D
:1018B00090938222F0E0A82FB0E0A257B44D9C9103
:1018C000EB53FC4D9F7790838F5F853068F3809159
:1018D0008222882369F080916A22882349F081E07E
:1018E0008093932B8091C5238093A00A10926A2243
:1018F00084E690E00E94450E20E046C0A09182223E
:10190000E1E0EA0FB0E0AB53BC4D83E98C9381E09A
:101910008E0F80938222F0E0EB53FC4D208390E009
:1019200016C08DE1289FF0011124E55EF74CE90F08
:10193000F11D808181708083E091822231E03E0F31
:1019400030938222F0E0EB53FC4D80839F5F9D310A
:1019500040F380918222E091932B8E1781F0809149
:101960006A22882361F081E08E0F8093932BF0E050
:10197000EB53FC4D80818093A00A10926A228091E3
:101980006A228111FCCF2F5F203108F4B7CF8AE0A3
:1019900090E00E94450E1092932B1092822210929A
:1019A00024211092153AF12C79C00F2D10E0F80186
:1019B000E551F64C8081882381F08150F801E55192
:1019C000F64C8083811109C0F801E056FD4D8081FD
:1019D0008D7F808381E080936F22F801EE54FD4D6E
:1019E0008081882381F08150F801EE54FD4D808381
:1019F000811109C0F801E056FD4D80818D7F808303
:101A000081E080936F22F801ED5EFE4D8081882396
:101A100091F08150F801ED5EFE4D808381110BC085
:101A2000F801E056FD4D8081846080830E94AB0800
:101A300081E080936F22F801EF56F24D8081882378
:101A400061F18150F801EF56F24D8083811125C07C
:101A50008F2D0E943A03F801E056FD4D90819F7E44
:101A600090838430B8F4E0918222A1E0AE0FF0E0E0
:101A7000EB53FC4D93EC9083E1E0EA0FB0E0AB5305
:101A8000BC4D8C9381E08E0F80938222F0E0EB536B
:101A9000FC4D108281E080936F22F394EFE0EF150C
:101AA00008F083CF80916F22882321F010926F225B
:101AB0000E9490079091173A80911D3A981709F467
:101AC0004EC006E11AE3F80133818DEC389F212DD9
:101AD000112426952695269540E3420F4983220F2F
:101AE000422F440F440F240F321B305D3A835AE3D8
:101AF0005B833281389F212D1124269526952695CA
:101B000040E3420F4C83220F422F440F440F240F17
:101B1000321B305D3D835E83989F812D1124869515
:101B20008695869520E3280F2F83880F282F220F74
:101B3000220F820F981B905D9887198665E770E2E7
:101B400080E090E00E94F421BE016F5F7F4F81E052
:101B500090E00E94F421F801818180931D3A0E9457
:101B60003E2480918B2BE091F5208E1769F081E067
:101B70008E0F8093F520F0E0EE0FFF1FE65FFA4D29
:101B8000808191810E94570E81E08093912B9091EA
:101B9000153A8091242198130E9417258091822262
:101BA000E091932B8E1709F4FECE80916A22882350
:101BB00009F4F9CE81E08E0F8093932BF0E0EB5384
:101BC000FC4D80818093A00A10926A228091A10A24
:101BD00085FFFCCFE8CEF89483E08093000882E094
:101BE000809306088DE59AE5809326089093270850
:101BF000E2EAF0E0808182608083789408951F9209
:101C00000F920FB60F92112408B60F9218BE0BB6A2
:101C10000F921BBE8F93EF93FF9380911A3A8F5FC1
:101C200080931A3A8A3010F010921A3A80911A3A38
:101C300081111FC080911B3A8823D9F0E6E1FAE3B5
:101C40008081865F80838B35A0F0108281818F5FD9
:101C500081838C3370F0118282818F5F82838C3319
:101C600040F0128283818F5F8383883110F010925D
:101C7000193AFF91EF918F910F900BBE0F9008BE14
:101C80000F900FBE0F901F90189541E050E00BC0D1
:101C90002F5F3F4F02C020E030E0293E63E036076F
:101CA000BCF34F5F5F4F84179507ACF708958F9291
:101CB0009F92AF92BF92CF92DF92EF92FF920F93DB
:101CC0001F93CF93DF93CDB7DEB76197CDBFDEBF54
:101CD000282F2778AC0156954795569547955695E8
:101CE0004795342F3F70E32E8C01002711708778C1
:101CF00092708738924009F428E8822F90E0893862
:101D0000910510F00C948920FC018827E250FF4FC8
:101D10008F4F0C94332980912321813011F40C943E
:101D20008920F12CF701E059FD4D8081813029F0A7
:101D3000823009F44FC20C948920012B09F0AAC10A
:101D4000F701EE0FFF1FEE0FFF1FEE0FFF1FE55F06
:101D5000F44D878188230CF053C08DE18E9DF001F6
:101D60008F9DF00D1124E55EF74C8485882309F4DE
:101D700047C00F2EF0EACF2EF2E2DF2EF02D8701C2
:101D800000561D4DF80180818C6080830E94F30312
:101D9000F6018089877F808BF801908190FF04C0D5
:101DA000F8019061908320C0F701EE0FFF1FEE0F46
:101DB000FF1FEE0FFF1FE55FF44D27812223A4F4E0
:101DC0002DE12E9DF0012F9DF00D1124E55EF74CC5
:101DD0002685222349F094FF07C09091902B9923E8
:101DE00019F088608093B02211E0F701E95FFD4CA3
:101DF00010830E946C080E94410310936F22C6C09A
:101E0000F701EE0FFF1FEE0FFF1FEE0FFF1FE55F45
:101E1000F44D868188230CF45CC09DE19E9DF00109
:101E20009F9DF00D1124E55EF74C9285992309F4EE
:101E300050C0F701E056FD4D80818C6080830E9488
:101E4000F3038DE18E9DF0018F9DF00D1124E55E71
:101E5000F74C8789882309F499C0E0EAF2E2808987
:101E6000877F808BF701E056FD4D808180FF05C0A4
:101E7000F701E056FD4D80618083F701EE0FFF1FF3
:101E8000EE0FFF1FEE0FFF1FE55FF44D86818823E5
:101E9000D4F08DE18E9DF0018F9DF00D1124E55E53
:101EA000F74C8685882379F0F701E056FD4D808157
:101EB00084FF09C08091902B882329F0E0EAF2E2A8
:101EC00080898860808B0E94410381E080936F222B
:101ED0005DC088230CF05AC08DE18E9DF0018F9D6E
:101EE000F00D1124E55EF74C8385882309F44EC07C
:101EF000F701E056FD4D80818C6080830E94F303E2
:101F00008DE18E9DF0018F9DF00D1124E55EF74C63
:101F1000808D8823D9F1E0EAF2E28089877F808B87
:101F2000F701E056FD4D808180FF05C0F701E056C6
:101F3000FD4D80618083F701EE0FFF1FEE0FFF1F45
:101F4000EE0FFF1FE55FF44D86818823D4F48DE109
:101F50008E9DF0018F9DF00D1124E55EF74C868576
:101F6000882379F0F701E056FD4D808184FF09C098
:101F70008091902B882329F0E0EAF2E28089886042
:101F8000808B0E94410381E080936F22F701EE0F66
:101F9000FF1FEE0FFF1FEE0FFF1FE55FF44D878160
:101FA00088230CF59DE19E9DF0019F9DF00D11246D
:101FB000E55EF74C918D9923B1F0E0918B2B81E098
:101FC0008E0F80938B2BF0E0C701880F991F880F2D
:101FD000991F880F991F8360EE0FFF1FE65FFA4D70
:101FE0008083918353C0F701EE0FFF1FEE0FFF1F99
:101FF000EE0FFF1FE55FF44D968199231CF12DE153
:102000002E9DF0012F9DF00D1124E55EF74C228DE1
:102010002223C1F08823B4F0E0918B2B81E08E0F56
:1020200080938B2BF0E0C701880F991F880F991FB1
:10203000880F991F8360EE0FFF1FE65FFA4D8083C4
:10204000918324C0992314F59DE19E9DF0019F9DED
:10205000F00D1124E55EF74C938D9923B9F0882398
:10206000ACF0E0918B2B81E08E0F80938B2BF0E016
:10207000C701880F991F880F991F880F991F8360C8
:10208000EE0FFF1FE65FFA4D808391830E94AB083D
:102090000C948920F701EE0FFF1FEE0FFF1FEE0FCC
:1020A000FF1FE55FF44D878188237CF58DE18E9DD0
:1020B000F0018F9DF00D1124E55EF74C8485882397
:1020C00021F1F701E056FD4D9081892F837F8083B8
:1020D00095FF11C0F701EE0FFF1FEE0FFF1FEE0F70
:1020E000FF1FE55FF44D918199232CF4F701E05631
:1020F000FD4D8F7E8083F701E95FFD4C10820E94C9
:102100006C0881E080936F225FC0F701EE0FFF1F24
:10211000EE0FFF1FEE0FFF1FE55FF44D8681882352
:102120004CF19DE19E9DF0019F9DF00D1124E55E17
:10213000F74C92859923F1F0F701E056FD4D90811F
:10214000892F837F808395FF11C0F701EE0FFF1F5A
:10215000EE0FFF1FEE0FFF1FE55FF44D91819923F6
:102160002CF4F701E056FD4D8F7E808381E0809353
:102170006F222AC0882344F58DE18E9DF0018F9D4A
:10218000F00D1124E55EF74C83858823E9F0F70113
:10219000E056FD4D9081892F837F808395FF11C08C
:1021A000F701EE0FFF1FEE0FFF1FEE0FFF1FE55FA2
:1021B000F44D918199232CF4F701E056FD4D8F7E6B
:1021C000808381E080936F220E94F3030E94AB081A
:1021D0000C948920012B09F07BC0F701EE0FFF1F43
:1021E000EE0FFF1FEE0FFF1FE55FF44D8681882382
:1021F0000CF19DE19E9DF0019F9DF00D1124E55E87
:10220000F74C92859923B1F0E0918B2B81E08E0FF2
:1022100080938B2BF0E0C701880F991F880F991FBF
:10222000880F991F8260EE0FFF1FE65FFA4D8083D3
:1022300091834AC088230CF58DE18E9DF0018F9D1E
:10224000F00D1124E55EF74C83858823B1F0E09111
:102250008B2B81E08E0F80938B2BF0E0C701880FD2
:10226000991F880F991F880F991F8260EE0FFF1F1B
:10227000E65FFA4D8083918327C0F701EE0FFF1FC1
:10228000EE0FFF1FEE0FFF1FE55FF44D87818823E0
:10229000DCF48DE18E9DF0018F9DF00D1124E55E43
:1022A000F74C8485882381F0F701E056FD4D80814D
:1022B0008C60808380FD05C0F701E056FD4D806194
:1022C000808381E080936F220E94AB080C94892068
:1022D000F701EE0FFF1FEE0FFF1FEE0FFF1FE55F71
:1022E000F44D87818823CCF48DE18E9DF0018F9D84
:1022F000F00D1124E55EF74C8485882371F0F70119
:10230000E056FD4D808180FF08C0F701E056FD4D8D
:10231000837E808381E080936F220E94AB080C94BF
:102320008920CE2CD12CF601E059FD4D80818130E1
:1023300029F0823009F4ACC00C948920012B09F0FB
:1023400063C0F601E056FD4D808185FF3FC08F01DF
:10235000816080830E949A048E2D0E949602F8016B
:102360008081837F808390918E2B9923D9F0F60111
:10237000EE0FFF1FEE0FFF1FEE0FFF1FE55FF44D87
:10238000918199237CF485FD0AC00CC0E82FF0E010
:10239000E056FD4D9081937F90838F5F01C080E078
:1023A0008031A0F30E94AB080E94F3030E94470310
:1023B0008E2D0E94A806F601E056FD4D80818F7E8D
:1023C000808381E080936F220C9489208DE18C9D25
:1023D000F0018D9DF00D1124E55EF74C8681882378
:1023E00071F08DE18C9DF0018D9DF00D1124E55E65
:1023F000F74C8781811103C08E2D0E94A8068E2D77
:102400000E9496020C948920F601E056FD4D8081D1
:102410008061808385FF18C08DE18C9DF0018D9DCA
:10242000F00D1124E55EF74C8681882319F08E2D7E
:102430000E94A8060E949A048E2D0E9496020E9475
:10244000F3030E94470319C08DE18C9DF0018D9D1F
:10245000F00D1124E55EF74C8681882371F08DE143
:102460008C9DF0018D9DF00D1124E55EF74C878168
:10247000811103C08E2D0E94A806F601E056FD4D85
:1024800080818E7F808381E080936F220C948920ED
:10249000012B09F077C0F601E056FD4D808185FDE6
:1024A00002C00C9489208E2D0E943A038430B8F427
:1024B000E0918222A1E0AE0FF0E0EB53FC4D92ECF4
:1024C0009083E1E0EA0FB0E0AB53BC4D8C9381E028
:1024D0008E0F80938222F0E0EB53FC4D10820E941D
:1024E0009A048E2D0E949602F601E056FD4D8081E1
:1024F000837F808390918E2B9923B9F1F601EE0FA3
:10250000FF1FEE0FFF1FEE0FFF1FE55FF44D9181E0
:1025100099235CF585FD26C028C0812F0E943A03CF
:102520008430B8F4E0918222A1E0AE0FF0E0EB53EA
:10253000FC4D92EC9083E1E0EA0FB0E0AB53BC4D70
:102540008C9381E08E0F80938222F0E0EB53FC4D60
:102550001082E12FF0E0E056FD4D8081837F808383
:102560001F5F01C010E01031C0F20E94AB08F601FD
:10257000E056FD4D80818F7E808381E080936F22C5
:102580000C9489200E949A048E2D0E949602F601D6
:10259000E056FD4D80818061808381E080936F22D1
:1025A0000C94892080912321813009F02DC1012BC9
:1025B00011F00C9489208091922B882311F40C94B3
:1025C000892081E1E6EDF0E2DE01119601900D92A5
:1025D0008A95E1F70E2D10E090918122292F30E0AD
:1025E0008DE1809FF001819FF00D1124E55EF74C95
:1025F000E20FF31F8081882361F08DE1809FF0015D
:10260000819FF00D1124E55EF74CE20FF31F10825D
:102610000CC08DE1809FF001819FF00D1124E55EDB
:10262000F74CE20FF31F81E08083F801E059FD4D84
:102630004081423029F5892E912CF4013297EA31FC
:10264000F105F0F48827E957FE4F8F4F0C9433299A
:102650008DE1809FF001819FF00D1124E55EF74C24
:10266000E20FF31F10820CC08DE1809FF001819F6B
:10267000F00D1124E55EF74CE20FF31F81E080833B
:10268000892F90E0FC013397E631F105B8F58827F2
:10269000EF55FE4F8F4F0C94332960E08F2D0E9431
:1026A000FE058F2D0E949602F39401C0F12CFFE0ED
:1026B000FF1598F723C00E94F30320C00E94F30384
:1026C0000E9447031BC0413089F40DC08E1549F0AC
:1026D0005DE1859FF0011124E55EF74CE20FF31FE9
:1026E00010828F5F01C080E0803180F30E94470339
:1026F00005C00E94470302C00E949A04C8010196C7
:102700006AE070E00E941F29605D6887805D8987AC
:10271000809181228930F9F49DE1909FF001919F91
:10272000F00D1124E55EF74CE80FF11D8081882340
:1027300049F080E58C8785E78D878CE68E8783E777
:102740008F8723C083E48C878FE68D878EE68E8704
:1027500084E78F871AC09DE1909FF001919FF00D53
:102760001124E55EF74CE80FF11D8081882339F0D4
:1027700089E58C8785E68D8783E78E8706C080E2B2
:102780008C878EE48D878FE68E876FE270E280E023
:1027900090E00E94F421BE016F5F7F4F81E090E0E6
:1027A0000E94F421809181220E941703A09182222D
:1027B000E1E0EA0FB0E0AB53BC4D83E98C9381E0DC
:1027C0008E0F80938222F0E0EB53FC4DE08280E09C
:1027D00017C0E091822291E09E0F90938222F0E058
:1027E0009DE1909FD001919FB00D1124A55EB74C43
:1027F000A80FB11D9C91EB53FC4D9F7790838F5F89
:102800008D3138F30C948920CE2CD12CF601E0596F
:10281000FD4D8081813029F0823009F499C00C94FB
:102820008920012B11F00C948920F601E056FD4D12
:10283000808182FF45C000EA12E2F601E056FD4DBC
:10284000837F80838E2D0E94A8060E94F303F801E7
:102850008089877F808B80E02BC0282F30E0F901B2
:10286000E056FD4D908193FF22C0F901EE0FFF1F4E
:10287000EE0FFF1FEE0FFF1FE55FF44D478144236E
:10288000B4F44DE1429FF001439FF00D1124E55E49
:10289000F74C2685222359F094FF09C09091902B84
:1028A000992329F0E0EAF2E290899860908B8F5F9B
:1028B000803198F20E94410381E080936F2244C0EE
:1028C00000EA12E2F601E056FD4D8C6080838E2D09
:1028D0000E94A8060E94F303F8018089877F808BFD
:1028E00080E02BC0282F30E0F901E056FD4D9081AB
:1028F00093FF22C0F901EE0FFF1FEE0FFF1FEE0F37
:10290000FF1FE55FF44D47814423B4F44DE1429F3E
:10291000F001439FF00D1124E55EF74C268522233C
:1029200059F094FF09C09091902B992329F0E0EA87
:10293000F2E290899860908B8F5F803198F20E94CC
:10294000410381E080936F220E94AB080C948920A0
:10295000012B11F00C948920F601EE0FFF1FEE0FF2
:10296000FF1FEE0FFF1FE55FF44D8181882314F4F4
:102970000C9489208E2D0E943A03F601E056FD4DFD
:10298000908192FF24C0F601E056FD4D937F908325
:102990008430B8F4E0918222A1E0AE0FF0E0EB5376
:1029A000FC4D92EC9083E1E0EA0FB0E0AB53BC4DFC
:1029B0008C9381E08E0F80938222F0E0EB53FC4DEC
:1029C00010820E94410381E080936F2259C0F6017A
:1029D000E056FD4D9B629083F601ED5EFE4D9AE060
:1029E0009083A0918222E1E0EA0FB0E0AB53BC4DAE
:1029F00092E89C93A1E0AE0FF0E0EB53FC4DE08237
:102A0000E1E0EA0FE0938222B0E0AB53BC4D91E0ED
:102A10009C938430B0F4A1E0AE0FF0E0EB53FC4D9A
:102A200090EC9083E1E0EA0FB0E0AB53BC4D8C93A7
:102A300091E09E0F90938222F0E0EB53FC4D91E0E9
:102A400090838430C0F4E0918222A1E0AE0FF0E0E8
:102A5000EB53FC4D92EC9083E1E0EA0FB0E0AB5316
:102A6000BC4D8C9381E08E0F80938222F0E0EB537B
:102A7000FC4D81E080830E94410381E080936F22BE
:102A80000E94AB080C948920CE2CD12CF601E05981
:102A9000FD4D8081813029F0823009F4C4C00C944E
:102AA00089208DE18C9DF0018D9DF00D1124E55E56
:102AB000F74C848D882359F1F601E056FD4D808155
:102AC00081628F7E8083012B51F461E08E2D0E9404
:102AD000FE05F601EC56F44D81E0808313C08DE1D4
:102AE0008C9DF0018D9DF00D1124E55EF74C8185E4
:102AF000811108C060E08E2D0E94FE05F601EC56A3
:102B0000F44D108281E080936F220C948920012B78
:102B100011F00C948920F601E056FD4D808185FF6F
:102B200027C08F018E7D80838E2D0E94A806F8011C
:102B3000808180618083F601EE0FFF1FEE0FFF1F83
:102B4000EE0FFF1FE55FF44D8181882364F48E2D25
:102B50000E94A8060E94F3030E9447038E2D0E9444
:102B600096020E949A0481E080936F220C9489203F
:102B7000F601E056FD4D806280838E2D0E94A806EE
:102B8000F601EE0FFF1FEE0FFF1FEE0FFF1FE55FB9
:102B9000F44D818188230CF041C0860100561D4D03
:102BA000F8018081816080838E2D0E94A806F80143
:102BB0008081837F808390918E2B9923D9F0F601B9
:102BC000EE0FFF1FEE0FFF1FEE0FFF1FE55FF44D2F
:102BD000918199237CF485FD0AC00CC0E82FF0E0B8
:102BE000E056FD4D9081937F90838F5F01C080E020
:102BF0008031A0F30E94AB088E2D0E9496020E94A5
:102C00009A040E94F3030E9447038E2D0E94A80697
:102C1000F601E056FD4D80818F7E808381E08093B8
:102C20006F220C948920012B11F00C9489208E2D99
:102C30000E943A03182FF601E056FD4D808185FF72
:102C400086C08E2D0E943A03182F843050F5A09133
:102C50008222E1E0EA0FB0E0AB53BC4D82EC8C93F2
:102C6000A1E0AE0FF0E0EB53FC4D1083E1E0EA0F82
:102C7000B0E0AB53BC4D1C92A1E0AE0FF0E0EB53C3
:102C8000FC4D83EC8083E1E0EA0FB0E0AB53BC4D38
:102C90001C9381E08E0F80938222F0E0EB53FC4D79
:102CA0001082F601E056FD4D80818F7D8061827F2C
:102CB0008083F601EE54FD4D8AE08083E09182220C
:102CC000A1E0AE0FF0E0EB53FC4D83E88083E1E040
:102CD000EA0FB0E0AB53BC4DEC9281E08E0F8093D5
:102CE0008222F0E0EB53FC4D81E080830E94AB0830
:102CF000F601EE0FFF1FEE0FFF1FEE0FFF1FE55F48
:102D0000F44D818188232CF48E2D0E9496020E941E
:102D10009A041430B8F4E0918222A1E0AE0FF0E002
:102D2000EB53FC4D80EC8083E1E0EA0FB0E0AB5365
:102D3000BC4D1C9381E08E0F80938222F0E0EB5318
:102D4000FC4D108281E080936F220C948920F60163
:102D5000E056FD4D83628083E0918222A1E0AE0FB8
:102D6000F0E0EB53FC4D82E88083E1E0EA0FB0E055
:102D7000AB53BC4DEC9281E08E0F80938222F0E049
:102D8000EB53FC4D81E08083F601EE0FFF1FEE0F49
:102D9000FF1FEE0FFF1FE55FF44D818188230CF0CC
:102DA00069C08E2D0E943A038430B8F4E0918222EB
:102DB000A1E0AE0FF0E0EB53FC4D92EC9083E1E02C
:102DC000EA0FB0E0AB53BC4D8C9381E08E0F809343
:102DD0008222F0E0EB53FC4D1082F601E056FD4DEF
:102DE0008081837F80839AE0F601EF56F24D9083D5
:102DF00090918E2B9923B9F1F601EE0FFF1FEE0F84
:102E0000FF1FEE0FFF1FE55FF44D918199235CF5E5
:102E100085FD26C028C0802F0E943A038430B8F474
:102E2000E0918222A1E0AE0FF0E0EB53FC4D92EC7A
:102E30009083E1E0EA0FB0E0AB53BC4D8C9381E0AE
:102E40008E0F80938222F0E0EB53FC4D1082E02F36
:102E5000F0E0E056FD4D8081837F80830F5F01C0ED
:102E600000E00031C0F20E94AB088E2D0E94960255
:102E70000E949A041430C0F4E0918222A1E0AE0FC7
:102E8000F0E0EB53FC4D80EC8083E1E0EA0FB0E032
:102E9000AB53BC4D1C9381E08E0F80938222F0E0F7
:102EA000EB53FC4D81E0808381E080936F220C9492
:102EB00089208E2D0E94A806E6E1FAE31382128291
:102EC000118210828E2D0E9496020E94F3030E94AE
:102ED00047030E949A040C948920CE2CD12CF60131
:102EE000E059FD4D8081813021F0823061F10C94F8
:102EF0008920F601EE0FFF1FEE0FFF1FEE0FFF1FE1
:102F0000E55FF44D8781882354F0E0EAF2E280899E
:102F1000877F808B0E94410381E080936F228E2DFA
:102F20000E94A806E6E1FAE313821282118210825F
:102F30008E2D0E9496020E94F3030E9447030E9476
:102F40009A040C9489208E2D0E943A03012B09F5D6
:102F5000F601E056FD4D9081996090838430E8F54C
:102F6000E0918222A1E0AE0FF0E0EB53FC4D91EC3A
:102F70009083E1E0EA0FB0E0AB53BC4D8C9381E06D
:102F80008E0F80938222F0E0EB53FC4D81E0808332
:102F900024C0F601E056FD4D908191FD05C0F6017B
:102FA000E056FD4D967F90838430B8F4E091822204
:102FB000A1E0AE0FF0E0EB53FC4D91EC9083E1E02B
:102FC000EA0FB0E0AB53BC4D8C9381E08E0F809341
:102FD0008222F0E0EB53FC4D108281E080936F225F
:102FE0000C9489206FE270E280E090E00E94F4216E
:102FF000012B11F00C94892080912321882309F45E
:10300000A1C08130F1F419C0842F90E0FDE16F9FE1
:1030100090011124F901E55BF94CE80FF91F50818B
:10302000255E374CF901E80FF91F50834F5F01C04F
:1030300040E04D3148F36F5F01C060E06031C0F3A4
:1030400012C0823081F40CC0822F90E0FC01EA5B58
:10305000F94C3081FC01E257F44D30832F5F01C001
:1030600020E0253088F3109223211092812261E51F
:1030700070E280E090E00E94F42164E670E281E07A
:1030800090E00E94F4216FE270E280E090E00E9404
:10309000F4216091812231E1639FB00111246A5DC6
:1030A0007D4D81E090E00E94F421E6E1FAE3238186
:1030B0008DEC289F912D112496959695969530E349
:1030C000390F3983990F392F330F330F930F291B82
:1030D000205D2A834AE34B832281289F912D11246E
:1030E00096959695969530E3390F3C83990F392F35
:1030F000330F330F930F291B205D2D834E83918156
:10310000989F812D112486958695869520E3280F1A
:103110002F83880F282F220F220F820F981B905D7C
:103120009887198665E770E280E090E00E94F421BC
:10313000BE016F5F7F4F81E090E00E94F4210E940A
:103140009007E7C780918122811107C0E6E1FAE389
:103150001382128211821082DCC70E949B206FE2D0
:1031600070E280E090E00E94F42161E570E280E08E
:1031700090E00E94F42164E670E281E090E00E9419
:10318000F4216FE270E280E090E00E94F42160910F
:10319000812251E1659FB00111246A5D7D4D81E07E
:1031A00090E00E94F421E6E1FAE323818DEC289F70
:1031B000912D112496959695969530E3390F398384
:1031C000990F392F330F330F930F291B205D2A835B
:1031D0004AE34B832281289F912D11249695969541
:1031E000969530E3390F3C83990F392F330F330F06
:1031F000930F291B205D2D834E839181989F812DF4
:10320000112486958695869520E3280F2F83880FB5
:10321000282F220F220F820F981B905D9887198606
:1032200065E770E280E090E00E94F421BE016F5FEC
:103230007F4F81E090E00E94F4210E94900769C7CF
:10324000012B09F066C780912321882321F0833068
:1032500009F4B7C0A9C280918122813059F138F0B8
:10326000823009F45EC0833009F491C052C7E6E1B0
:10327000FAE3138212821182108281E080931B3A5A
:1032800048C7842F90E0EDE16E9F90011124F90171
:10329000E55EF74CE80FF91F5081255B394CF901C9
:1032A000E80FF91F50834F5F01C040E04D3148F3F4
:1032B0006F5F01C060E06031C0F381E08093232143
:1032C0001092812261E570E280E090E00E94F4219A
:1032D00060918122F1E16F9FB00111246C55744D12
:1032E00081E090E00E94F4216FE270E280E090E0E3
:1032F0000E94F42167E770E281E090E00E94F421EF
:10330000809181220E94170304C7822F90E0FC0164
:10331000E257F44D3081FC01EA5BF94C30832F5FBA
:1033200001C020E0253088F382E0809323211092B1
:10333000812261E570E280E090E00E94F4216091DA
:10334000812231E1639FB00111246B537B4D81E0F9
:1033500090E00E94F4216FE270E280E090E00E9431
:10336000F421E0918122F0E0E257F44D808188233E
:1033700039F068E870E281E090E00E94F421C9C66B
:1033800069E970E281E090E00E94F421C2C683E026
:10339000809323211092812261E570E280E090E029
:1033A0000E94F4216091812251E1659FB0011124B6
:1033B0006F55724D81E090E00E94F4210E945124EB
:1033C000A8C680918122833009F4A8C0843009F412
:1033D00072C1813009F07BC120E140E752E260E038
:1033E00070E080E70E949A206894EE24E4F8F12CC3
:1033F00010E00FC08DE1189FA0011124455E574CCD
:103400002DE1B70180E70E949A209DE1E90EF11CB1
:103410001F5F103178F325E04EE85BE2B70180E7EB
:103420000E949A2040E050C0242F30E0F901E0597A
:10343000FD4D80818150823060F5A0918222E1E0D3
:10344000EA0FB0E0AB53BC4D83E98C9381E08E0F63
:1034500080938222F0E0EB53FC4D408380E017C064
:10346000E091822291E09E0F90938222F0E09DE114
:10347000929FD001939FB00D1124A55EB74CA80F69
:10348000B11D9C91EB53FC4D9F7790838F5F8D31E5
:1034900038F380918222E091932B8E1781F08091F6
:1034A0006A22882361F081E08E0F8093932BF0E0F5
:1034B000EB53FC4D80818093A00A10926A22809188
:1034C0006A228823E1F34F5F403108F4ADCFA09129
:1034D0008222E1E0EA0FB0E0AB53BC4D84E98C936B
:1034E00081E08E0F80938222F0E0EB53FC4D10823E
:1034F00080E011C0E091822291E09E0F90938222A1
:10350000F0E0A82FB0E0A257B44D9C91EB53FC4DD6
:103510009F7790838F5F853068F3D9C020E1AE013B
:103520004F5F5F4F60E070E080E50E949A2040E0CE
:1035300020E010C0822F90E0FC01E059FD4D308169
:10354000E1E0F0E0EC0FFD1FE80FF91F8081381378
:1035500041E02F5F203170F3442389F09BC0EDE1FF
:103560001E9FA0011124455E574C2DE1B70180E557
:103570000E949A20FDE1EF0EF11C1F5F05C06894C8
:10358000EE24E4F8F12C10E0103148F325E04EE889
:103590005BE2B70180E50E949A2030E051C0432FE2
:1035A00050E0FA01E059FD4D80818150823068F58C
:1035B000A0918222E1E0EA0FB0E0AB53BC4D83E979
:1035C0008C9381E08E0F80938222F0E0EB53FC4DD0
:1035D000308390E018C08DE1849FF001859FF00D4D
:1035E0001124E55EF74CE90FF11D80818170808325
:1035F000E091822221E02E0F20938222F0E0EB5313
:10360000FC4D80839F5F9D3130F380918222E09159
:10361000932B8E1781F080916A22882361F081E0DC
:103620008E0F8093932BF0E0EB53FC4D80818093C1
:10363000A00A10926A2280916A228823E1F33F5FF8
:10364000303108F4ACCFA0918222E1E0EA0FB0E083
:10365000AB53BC4D84E98C9381E08E0F8093822222
:10366000F0E0EB53FC4D108280E011C0E09182222B
:1036700091E09E0F90938222F0E0A82FB0E0A25735
:10368000B44D9C91EB53FC4D9F7790838F5F8530B9
:1036900068F31DC06FE270E280E090E00E94F421C8
:1036A0006AEA70E281E090E00E94F42184E690E012
:1036B0000E94450E0CC061E570E280E090E00E943F
:1036C000F4216BEB70E281E090E00E94F421109213
:1036D00023211092812261E570E280E090E00E9457
:1036E000F42164E670E281E090E00E94F4216FE250
:1036F00070E280E090E00E94F4216091812231E14B
:10370000639FB00111246A5D7D4D81E090E00E94CD
:10371000F421E6E1FAE323818DEC289F912D112419
:1037200096959695969530E3390F3983990F392FF1
:10373000330F330F930F291B205D2A834AE34B83FA
:103740002281289F912D112496959695969530E388
:10375000390F3C83990F392F330F330F930F291BE8
:10376000205D2D834E839181989F812D1124869514
:103770008695869520E3280F2F83880F282F220F08
:10378000220F820F981B905D9887198665E770E27B
:1037900080E090E00E94F421BE016F5F7F4F81E0E6
:1037A00090E00E94F421B5C410922321109281224E
:1037B00061E570E280E090E00E94F42164E670E24E
:1037C00081E090E00E94F4216FE270E280E090E0FE
:1037D0000E94F4216091812251E1659FB001112482
:1037E0006A5D7D4D81E090E00E94F421E6E1FAE31C
:1037F00023818DEC289F912D112496959695969571
:1038000030E3390F3983990F392F330F330F930F6B
:10381000291B205D2A834AE34B832281289F912D17
:10382000112496959695969530E3390F3C83990F20
:10383000392F330F330F930F291B205D2D834E83B8
:103840009181989F812D112486958695869520E3F8
:10385000280F2F83880F282F220F220F820F981BEB
:10386000905D9887198665E770E280E090E00E949D
:10387000F421BE016F5F7F4F81E090E00E94F42150
:103880000E94900746C4012B09F043C48091232174
:10389000823009F03EC48091922B882309F439C408
:1038A000E0918122F0E0E257F44D81E080836FE205
:1038B00070E280E090E00E94F42168E870E281E02C
:1038C00090E00E94F421A0918222E1E0EA0FB0E0B2
:1038D000AB53BC4D84E98C9381E08E0F80938222A0
:1038E000F0E0EB53FC4D108280E011C0E0918222A9
:1038F00091E09E0F90938222F0E0A82FB0E0A257B3
:10390000B44D9C91EB53FC4D9F7790838F5F853036
:1039100068F3FFC3012B09F0FCC380918122815021
:103920008093812290912321913001F138F09230DF
:1039300009F444C0933009F474C0EBC3843018F028
:1039400083E0809381226FE270E280E090E00E9449
:10395000F4216091812281E1689FB00111246A5DA8
:103960007D4D81E090E00E94F421D3C38D3118F0A9
:103970008CE18093812261E570E280E090E00E941A
:10398000F4216091812291E1699FB00111246C556D
:10399000744D81E090E00E94F4216FE270E280E0DB
:1039A00090E00E94F42167E770E281E090E00E94DD
:1039B000F421809181220E941703ABC3843018F058
:1039C00083E08093812261E570E280E090E00E94D4
:1039D000F42160918122E1E16E9FB00111246B53CB
:1039E0007B4D81E090E00E94F4216FE270E280E084
:1039F00090E00E94F421E0918122F0E0E257F44D42
:103A00008081882339F068E870E281E090E00E94CC
:103A1000F4217FC369E970E281E090E00E94F42123
:103A200078C3863018F085E08093812280916D22E2
:103A3000811107C080918122843019F482E0809343
:103A4000812261E570E280E090E00E94F4216091C3
:103A50008122F1E16F9FB00111246F55724D81E019
:103A600090E00E94F42180918122882319F0853012
:103A700021F010C00E9451244CC36FE270E280E03C
:103A800090E00E94F42160E070E281E090E00E940A
:103A9000F4213FC36FE270E280E090E00E94F421E5
:103AA00065EC70E281E090E00E94F42132C3012BCA
:103AB00009F02FC3809181228F5F809381229091A2
:103AC00023219130F9F038F0923009F442C093305C
:103AD00009F471C01EC3843010F0109281226FE28D
:103AE00070E280E090E00E94F4216091812231E157
:103AF000639FB00111246A5D7D4D81E090E00E94DA
:103B0000F42107C38D3110F01092812261E570E23B
:103B100080E090E00E94F4216091812251E1659F54
:103B2000B00111246C55744D81E090E00E94F421A5
:103B30006FE270E280E090E00E94F42167E770E2BB
:103B400081E090E00E94F421809181220E9417037D
:103B5000E0C2843010F01092812261E570E280E0D2
:103B600090E00E94F4216091812281E1689FB00180
:103B700011246B537B4D81E090E00E94F4216FE2B1
:103B800070E280E090E00E94F421E0918122F0E078
:103B9000E257F44D8081882339F068E870E281E0D3
:103BA00090E00E94F421B5C269E970E281E090E002
:103BB0000E94F421AEC2863010F0109281228091D2
:103BC0006D22811107C080918122833019F485E034
:103BD0008093812261E570E280E090E00E94F42110
:103BE0006091812291E1699FB00111246F55724D5E
:103BF00081E090E00E94F42180918122882319F0D5
:103C0000853021F010C00E94512483C26FE270E21F
:103C100080E090E00E94F42160E070E281E090E0BA
:103C20000E94F42176C26FE270E280E090E00E9490
:103C3000F42165EC70E281E090E00E94F42169C219
:103C4000012B09F066C280912321823009F061C204
:103C50008091922B882309F45CC2E0918122F0E0EC
:103C6000E257F44D10826FE270E280E090E00E9433
:103C7000F42169E970E281E090E00E94F4218091F2
:103C80008122823018F0823021F033C00E94AB08CC
:103C900030C0E0EAF2E28089877F808B4E2D50E0D1
:103CA000FA01EE0FFF1FEE0FFF1FEE0FFF1FE55F84
:103CB000F44D97819923C4F49DE1949FF001959F61
:103CC000F00D1124E55EF74C9685992369F0FA0111
:103CD000E056FD4D908194FF07C09091902B992361
:103CE00019F088608093B0220E94410381E08093A4
:103CF0006F22A0918222E1E0EA0FB0E0AB53BC4D0D
:103D000084E98C9381E08E0F80938222F0E0EB5364
:103D1000FC4D108280E011C0E091822291E09E0F64
:103D200090938222F0E0A82FB0E0A257B44D9C916E
:103D3000EB53FC4D9F7790838F5F853068F3E9C12B
:103D4000812F90E0FC01E056FD4D2081237F2083F0
:103D5000FC01E059FD4D80818230E1F4812F0E9409
:103D60003A038430B8F4E0918222A1E0AE0FF0E093
:103D7000EB53FC4D92EC9083E1E0EA0FB0E0AB53E3
:103D8000BC4D8C9381E08E0F80938222F0E0EB5348
:103D9000FC4D10821F5F01C010E0103188F20E94BC
:103DA000AB080E94F3030E944703812F0E94A806DC
:103DB00081E080936F22ADC1012B09F08DC0E0EA54
:103DC000F2E280898F7B808B0E94900785E090E0F3
:103DD0000E94450E85E090E00E94450E81E08093B0
:103DE0006D2260E070E080E50E94992080916D2254
:103DF000882309F46DC083E080932321809381227E
:103E000061E570E280E090E00E94F42160918122FF
:103E1000E1E16E9FB00111246F55724D81E090E099
:103E20000E94F4216FE270E280E090E00E94F421B1
:103E300065EC70E281E090E00E94F421E091822242
:103E4000A1E0AE0FF0E0EB53FC4D88E98083E1E0A8
:103E5000EA0FB0E0AB53BC4D1C9281E08E0F809313
:103E60008222F0E0EB53FC4D81E080838091922B25
:103E700080930A2721E042E95BE264EE71E080E58D
:103E80000E949A20A0918222E1E0EA0FB0E0AB53B9
:103E9000BC4D84E98C9381E08E0F80938222F0E008
:103EA000EB53FC4D108280E011C0E091822291E042
:103EB0009E0F90938222F0E0A82FB0E0A257B44D5D
:103EC0009C91EB53FC4D9F7790838F5F853068F317
:103ED00081E080936F221DC110926D22E0918222B9
:103EE000A1E0AE0FF0E0EB53FC4D88E98083E1E008
:103EF000EA0FB0E0AB53BC4D1C92A1E0AE0FF0E076
:103F0000EB53FC4D108280910A278093922BE1E0C5
:103F1000EA0FB0E0AB53BC4D84E98C9381E08E0F87
:103F200080938222F0E0EB53FC4D108280E011C0C0
:103F3000E091822291E09E0F90938222F0E0A82FE0
:103F4000B0E0A257B44D9C91EB53FC4D9F7790830A
:103F50008F5F853068F3E0EAF2E280898064808BCD
:103F600081E080936F2280912321833009F0D1C0BA
:103F7000809181228350823008F0CBC0109223219F
:103F80001092812261E570E280E090E00E94F421CD
:103F900064E670E281E090E00E94F4216FE270E25A
:103FA00080E090E00E94F42160918122F1E16F9F16
:103FB000B00111246A5D7D4D81E090E00E94F42102
:103FC000E6E1FAE323818DEC289F912D112496954B
:103FD0009695969530E3390F3983990F392F330F22
:103FE000330F930F291B922F905D9A834AE34B83E3
:103FF0002281289F912D112496959695969530E3D0
:10400000390F3C83990F392F330F330F930F291B2F
:10401000922F905D9D834E839181989F812D1124D5
:1040200086958695869520E3280F2F83880F282F65
:10403000220F220F820F981B892F805D8887198697
:1040400065E770E280E090E00E94F421BE016F5FBE
:104050007F4F81E090E00E94F4215BC08E2D0E9492
:104060003A034E2D50E0FA01E056FD4D908195FF48
:1040700050C0012B39F5FA01E056FD4D9061908357
:10408000FA01EF56F24D10828430C0F4E0918222A2
:10409000A1E0AE0FF0E0EB53FC4D93EC9083E1E038
:1040A000EA0FB0E0AB53BC4D8C9381E08E0F809350
:1040B0008222F0E0EB53FC4D81E0808381E080932D
:1040C0006F2227C0FA01EF56F24D2081211121C045
:1040D000FA01E056FD4D9F7E90838430B8F4E09164
:1040E0008222A1E0AE0FF0E0EB53FC4D93EC908305
:1040F000E1E0EA0FB0E0AB53BC4D8C9381E08E0F52
:1041000080938222F0E0EB53FC4D108281E080939B
:104110006F226196CDBFDEBFDF91CF911F910F91CE
:10412000FF90EF90DF90CF90BF90AF909F908F90D7
:10413000089508950895CF93DF9380EA8A95F1F763
:10414000E6E0F6E080E2808320E4208398E090833C
:1041500030E1308364E06083A5E0B6E052E05C9338
:1041600041E04C938C938083CFEBD3E02197F1F720
:1041700000C0000020839083308360835C934C9365
:104180008C93CFE3D1E02197F1F700C0000080834A
:1041900020839083308360835C934C938C93CFE334
:1041A000D1E02197F1F700C000008083CFE3D1E098
:1041B0002197F1F700C00000208390833083608353
:1041C0005C9340838C93CFE3D1E02197F1F700C05B
:1041D0000000808320839083308360835C934083DE
:1041E0008C93CFE3D1E02197F1F700C000008083EA
:1041F000208390833C936083508340838C93CFE3F0
:10420000D1E02197F1F700C0000080833C93208328
:104210009C938C93CFE3D1E02197F1F700C000008D
:1042200080838C938FE00CC080E280930606EFE3DE
:10423000F1E03197F1F700C0000080930506892F67
:104240009FEF980F8111F0CFE6E0F6E080E28083E7
:1042500020E4208398E0908330E1308364E0608341
:1042600052E0508341E04083A5E0B6E08C93CFE379
:10427000D1E02197F1F700C0000080832083908374
:104280003C936C93508340838C93CFE3D1E0219790
:10429000F1F700C0000080833C9320839C938C93B3
:1042A000CFE3D1E02197F1F700C0000080838C9329
:1042B0008FE00CC080E280930606EFE3F1E03197D7
:1042C000F1F700C0000080930506892F9FEF980F3B
:1042D0008111F0CFE6E0F6E080E2808320E42083E5
:1042E00098E0908330E1308364E0608352E0508353
:1042F00041E04083A5E0B6E08C93CFE3D1E0219785
:10430000F1F700C0000080832083908330836083B6
:1043100050834C938C93CFE3D1E02197F1F700C009
:10432000000080833C9320839C938C93CFE3D1E067
:104330002197F1F700C0000080838C938FE00CC0C0
:1043400080E280930606EFE3F1E03197F1F700C0D9
:10435000000080930506892F9FEF980F8111F0CF01
:10436000E6E0F6E080E2808320E4208398E090831A
:1043700030E1308364E0608352E0508341E0408369
:10438000A5E0B6E08C93CFE3D1E02197F1F700C030
:10439000000080832083908330836C935C93408300
:1043A0008C93CFE3D1E02197F1F700C00000808328
:1043B0003C9320839C938C938FE00CC080E280938D
:1043C0000606EFE3F1E03197F1F700C000008093BB
:1043D0000506892F9FEF980F8111F0CF80E280931F
:1043E0000606DF91CF910895CF93DF93AC0120E0D3
:1043F00089C0C6E0D6E080E48883A5E0B6E088E026
:104400008C9390E29C9398839C93908194FF04C03A
:1044100081E08093050603C081E08093060695FF46
:1044200004C082E08093050603C082E08093060604
:1044300096FF04C084E08093050603C084E0809367
:104440000606992324F480E18093050603C080E1E9
:10445000809306068FE391E00197F1F700C000001A
:104460004115510521F480E48093060606C04130D1
:10447000510519F480E480930506A6E0B6E088E0D3
:104480008C9390E290930506CFE3D1E02197F1F76A
:1044900000C000009C93908190FF04C081E0809355
:1044A000050603C081E08093060691FF04C082E008
:1044B0008093050603C082E08093060692FF04C045
:1044C00084E08093050603C084E08093060693FF92
:1044D00004C080E18093050603C080E18093060656
:1044E000EFE3F1E03197F1F700C0000090E2909324
:1044F0000506CFE3D1E02197F1F700C000009093CB
:1045000006062F5FFB01E20FF11D8081811171CF43
:10451000DF91CF910895E6E2F6E084E0808392E0B7
:10452000908391E09093460698E0908380934506AF
:104530001092092503C08F5F80930925809109257A
:104540008233C8F320E04BC08091E8078370422F8C
:1045500050E090E0022E02C0959587950A94E2F70C
:10456000BC016170772780FD1EC0FA01E550F64C52
:1045700080818823C4F08150FA01E550F64C808395
:10458000882364F5E0918B2B81E08E0F80938B2B39
:10459000F0E0EE0FFF1FE65FFA4D822F806890E09B
:1045A000808391831BC0672BC9F0FA01E550F64C5C
:1045B000808188239CF4FA01E550F64C81E08083E9
:1045C000E0918B2B8E0F80938B2BF0E04068516035
:1045D000EE0FFF1FE65FFA4D408351832F5F2830B7
:1045E00008F4B2CF0895CF93DF93813021F498E09F
:1045F0009093250603C098E09093260694E090934C
:10460000460650E036C150FF04C094E09093250662
:1046100003C094E09093260651FF04C092E090936B
:10462000250603C092E09093260652FF04C091E055
:104630009093450603C091E0909346061092092599
:1046400003C09F5F90930925909109259233C8F389
:104650009091E80791FF06C09091203A9160909365
:10466000203A05C09091203A9E7F9093203A9091F5
:10467000E80790FF06C09091203A92609093203A0C
:1046800005C09091203A9D7F9093203A90916806C2
:1046900093FF06C09091203A94609093203A05C011
:1046A0009091203A9B7F9093203A9091680692FFD8
:1046B00006C09091203A98609093203A05C090915E
:1046C000203A977F9093203A90916806992334F48A
:1046D0009091203A90619093203A05C09091203AB1
:1046E0009F7E9093203A9091680696FF06C0909125
:1046F000203A90629093203A05C09091203A9F7D95
:104700009093203A9091680695FF06C09091203AC8
:1047100090649093203A05C09091203A9F7B9093AB
:10472000203A9091680694FF06C09091203A9068D4
:104730009093203A05C09091203A9F779093203A29
:104740001092092503C09F5F909309259091092538
:104750009233C8F3642F70E02091203A30E0042EA9
:1047600002C0359527950A94E2F7E901C170DD276B
:1047700020FD40C0282F30E0220F331F220F331FAF
:10478000220F331F260F371FA52FB0E0F901EE0FC0
:10479000FF1FEE0FFF1FEE0FFF1FE55FF44DEA0F47
:1047A000FB1F9081992334F19150F901EE0FFF1F07
:1047B000EE0FFF1FEE0FFF1FE55FF44DEA0FFB1F2B
:1047C000908399230CF04EC0E0918B2B91E09E0FCB
:1047D00090938B2BF0E0220F331F220F331F220FF9
:1047E000331FA22BB32BEE0FFF1FE65FFA4DA08302
:1047F000B18338C0CD2BB1F1282F30E0220F331F09
:10480000220F331F220F331F260F371F652F70E033
:10481000F901EE0FFF1FEE0FFF1FEE0FFF1FE55F09
:10482000F44DE60FF71F90819923E4F4220F331F14
:10483000220F331F220F331FF901E55FF44DE60FFE
:10484000F71F91E09083E0918B2B9E0F90938B2B21
:10485000F0E03160262B372BEE0FFF1FE65FFA4D9D
:10486000208331834F5F01C040E0483008F4CBCE55
:104870005F5F5830C8F3DF91CF9108950E948B227B
:104880001092092503C08F5F809309258091092527
:104890008233C8F380E00E94F32281E00E94F32279
:1048A0000895CF93DF93CDB7DEB76197CDBFDEBF5D
:1048B00083E5898384E78A838DE48B838FE68C8309
:1048C00084E68D838AE38E832091C2222A3058F0B9
:1048D0008DEC289F812D1124869586958695805D87
:1048E0008F8387E001C086E0E1E0F0E0EC0FFD1F80
:1048F000E80FF11D9DEC299F912D11249695969519
:104900009695990F392F330F330F930F291B205D85
:10491000208391E0980FE1E0F0E0EC0FFD1FE90F3C
:10492000F11D90E2908392E0980FE1E0F0E0EC0F4F
:10493000FD1FE90FF11D94E5908393E0980FE1E0EE
:10494000F0E0EC0FFD1FE90FF11D95E6908394E078
:10495000980FE1E0F0E0EC0FFD1FE90FF11D9CE680
:10496000908395E0980FE1E0F0E0EC0FFD1FE90F78
:10497000F11D93E6908396E0980FE1E0F0E0EC0FF4
:10498000FD1FE90FF11D9FE6908328E0280F97E0B7
:10499000980FE1E0F0E0EC0FFD1FE90FF11D9AE345
:1049A00090839091C3229A3088F0E1E0F0E0EC0F20
:1049B000FD1FE20FF11D2DEC929F212D1124269554
:1049C00026952695205D208329E0280F31E0320FBF
:1049D000E1E0F0E0EC0FFD1FE20FF11D8DEC989F80
:1049E000812D1124869586958695880F282F220F74
:1049F000220F820F981B905D9083E1E0F0E0EC0FB6
:104A0000FD1FE30FF11D10826FE270E280E090E085
:104A10000E94F421BE016F5F7F4F81E090E00E9411
:104A2000F4216196CDBFDEBFDF91CF910895CF9382
:104A3000DF93E0912421C1E0CE0FF0E0EA5DFE4D6E
:104A4000E081A1E0AC0FD0E0CA5DDE4D288181E0BD
:104A50008A0F80932421B0E0AA5DBE4DCC918E2FA9
:104A600090E0FC01E058F109E336F10508F00AC2D4
:104A70008827E954FE4F8F4F0C943329E0918B2BFC
:104A800081E08E0F80938B2BF0E030E0220F331FFC
:104A9000220F331F220F331F2360EE0FFF1FE65F2D
:104AA000FA4D20833183EEC1E0918B2B81E08E0F94
:104AB00080938B2BF0E030E0220F331F220F331F47
:104AC000220F331F2260EE0FFF1FE65FFA4D208397
:104AD0003183D8C181E080931B3AD4C110921B3A34
:104AE000D1C1E6E1FAE31382128211821082CAC1B7
:104AF000422F50E08DE1849FF001859FF00D11243D
:104B0000E55EF74CC08381E016C0E091242191E07E
:104B10009E0F90932421F0E0EA5DFE4D90813DE1EF
:104B2000349FF001359FF00D1124E55EF74CE80F3E
:104B3000F11D90838F5F8D3140F3A4C1C0938E2B04
:104B400081E011C0282F30E0E091242191E09E0FF8
:104B500090932421F0E0EA5DFE4D9081F901E25747
:104B6000F44D90838F5F853068F38CC1A0918222D1
:104B7000E1E0EA0FB0E0AB53BC4D8AE98C9381E0F1
:104B80008E0F80938222F0E0EB53FC4D108280E088
:104B900011C0E091822291E09E0F90938222F0E07A
:104BA000A82FB0E0A050B04E9C91EB53FC4D9F77E6
:104BB00090838F5F8E3168F365C1A0918222E1E01E
:104BC000EA0FB0E0AB53BC4D83E98C9381E08E0FCC
:104BD00080938222F0E0EB53FC4D208380E015C0EF
:104BE000E091822291E09E0F90938222F0E09DE17D
:104BF000299FD0011124A55EB74CA80FB11D9C912F
:104C0000EB53FC4D9F7790838F5F8D3148F33AC112
:104C1000A0918222E1E0EA0FB0E0AB53BC4D84E901
:104C20008C9381E08E0F80938222F0E0EB53FC4D59
:104C3000108280E011C0E091822291E09E0F90935B
:104C40008222F0E0A82FB0E0A257B44D9C91EB5324
:104C5000FC4D9F7790838F5F853068F313C1A091DF
:104C60008222E1E0EA0FB0E0AB53BC4D85E98C93C2
:104C700081E08E0F80938222F0E0EB53FC4D108296
:104C800080E011C0E091822291E09E0F90938222F9
:104C9000F0E0A82FB0E0A059BD4D9C91EB53FC4D26
:104CA0009F7790838F5F803168F3ECC020E140E70D
:104CB00052E260E080E70E9483280E94D528843079
:104CC00021F00E94D5288F3FC1F780E090E009C015
:104CD000FC01E55EF74C2081FC01E75EFD4C208382
:104CE00001968D319105A4F3C0E0D0E021E030E0E1
:104CF0002CC091E0C031D1050CF090E081E0213072
:104D0000310509F080E08923A1F020E149E152E377
:104D100060E180E70E9483280E94D528843039F022
:104D20000E94D5288F3FC1F722E030E002C022E088
:104D300030E0C031D10544F0FE01E75EFD4C8081DA
:104D4000FE01E75FFD4C80832196CD31D1058CF2C9
:104D50002DE049E152E360E280E70E9483280E944F
:104D6000D528843021F00E94D5288F3FC1F725E057
:104D70004EE85BE26DE280E70E9483280E94D5281E
:104D8000843021F00E94D5288F3FC1F71092A13ABC
:104D90001092A23A05C001968093A13A9093A23A4C
:104DA0008091A13A9091A23A883E2DEF920798F314
:104DB00069C0CC2309F466C0822F0E94A408E09148
:104DC0008B2B91E09E0F90938B2BF0E090E0880F5F
:104DD000991F880F991F880F991F8360EE0FFF1F7F
:104DE000E65FFA4D808391834DC0822F0E94A40814
:104DF000CC23B9F0E0918B2B91E09E0F90938B2BFD
:104E0000F0E090E0880F991F880F991F880F991F75
:104E100087689260EE0FFF1FE65FFA4D80839183F3
:104E200031C0E0918B2B91E09E0F90938B2BF0E0A3
:104E300090E0880F991F880F991F880F991F876826
:104E40009360EE0FFF1FE65FFA4D808391831AC0D7
:104E5000CC23C1F0822F0E94A408E0918B2B91E01B
:104E60009E0F90938B2BF0E090E0880F991F880F96
:104E7000991F880F991F8260EE0FFF1FE65FFA4DA2
:104E800080839183DF91CF910895F89488E0809397
:104E9000850683E08093A50AE0EAFAE08381807CBE
:104EA0008862838382E6868384E987838481807E27
:104EB00088618483789408951F920F920FB60F92A1
:104EC000112408B60F9218BE09B60F9219BE0BB680
:104ED0000F921BBE2F938F939F93AF93BF93EF932C
:104EE000FF938091A00A8093B122882394F41092BA
:104EF000C423833919F0843929F008C09FE19093C5
:104F00006E2207C097E090936E2203C093E09093C7
:104F10006E22E091C42391E09E0F9093C423F0E0B1
:104F2000EC53FD4D808320916E22921790F414C0B3
:104F3000E091153A91E09E0F9093153AF0E0A82F7A
:104F4000B0E0AC53BD4D9C91EA5DFE4D90838F5F08
:104F500001C080E0821760F3FF91EF91BF91AF91A4
:104F60009F918F912F910F900BBE0F9009BE0F90C4
:104F700008BE0F900FBE0F901F9018951F920F92B2
:104F80000FB60F92112408B60F9218BE0BB60F92EF
:104F90001BBE8F939F93EF93FF938091932B9091E0
:104FA0008222891769F0E82FF0E0EB53FC4D9081E5
:104FB000992334F08F5F8093932B9093A00A03C0C2
:104FC00081E080936A22FF91EF919F918F910F90E2
:104FD0000BBE0F9008BE0F900FBE0F901F9018953C
:104FE000E8EEF0E28FEF84870190F081E02D83E01E
:104FF000838308950E94F0270895CF93DF93E09173
:10500000E820F091E920848184FF03C00E94F0270A
:1050100042C08091F420811112C0A8EEB0E2139634
:105020008C911397878316968C91882321F081E0C9
:105030008093F42030C082E08093F4202CC0813033
:1050400071F4A8EEB0E212968C91129790E0880F5E
:10505000991F8160868383E01C968C931CC08230EC
:10506000D1F4A8EEB0E215968C91159714969C9108
:105070001497891758F4ED01A885B98591E0980F28
:105080009D83A80FB11D8C91878305C083E0838326
:1050900084E08093F420DF91CF910895CF93DF9344
:1050A0008091F4208330D1F4E8EEF0E2A285B3855C
:1050B000978181E0890F8783A90FB11DC081D181BC
:1050C0009F819C939681891718F482E08B8308C096
:1050D00087E08B8385E08093F42002C00E94F02754
:1050E000DF91CF9108951092A00488E28093A504E7
:1050F00088E78093A1041092A204E4EAF4E080819E
:10510000816080830895E8EEF0E2128613861682AD
:105110001582408751872483A0EAB4E0A083B1833D
:10512000828363831486880F16968C931092A13A1B
:105130001092A23A09C08091A13A9091A23A0196A8
:105140008093A13A9093A23A8091A13A9091A23A89
:1051500088399A4380F30895E8EEF0E210861186CC
:1051600014821782428753872683A0EAB4E0A08383
:10517000B183828363831486880F16968C93109272
:10518000A13A1092A23A09C08091A13A9091A23A14
:1051900001968093A13A9093A23A8091A13A90917E
:1051A000A23A80329E4480F308958091F4200895BD
:1051B0001F920F920FB60F92112408B60F9218BECD
:1051C00009B60F9219BE0BB60F921BBE2F933F93D9
:1051D0004F935F936F937F938F939F93AF93BF93FF
:1051E000EF93FF93E091E820F091E920848183FF21
:1051F00003C00E94FA270CC086FF03C00E94FD274F
:1052000007C088231CF40E944E2802C00E94F02789
:10521000FF91EF91BF91AF919F918F917F916F918E
:105220005F914F913F912F910F900BBE0F9009BE50
:105230000F9008BE0F900FBE0F901F90189597FB10
:10524000072E16F4009407D077FD09D00E943C2960
:1052500007FC05D03EF4909581959F4F0895709579
:1052600061957F4F0895EE0FFF1F881F8BBF07903A
:10527000F691E02D1BBE1994AA1BBB1B51E107C080
:10528000AA1FBB1FA617B70710F0A61BB70B881FD6
:10529000991F5A95A9F780959095BC01CD01089565
:0452A000F894FFCFB0
:1052A400442652204169726C61622076322E303479
:1052B400202D2030382F32303036000000002020DE
:1052C40020442652204169726C616220202000C073
:1052D400002020496E697469616C697A696E67207F
:1052E4002000436F6E666967206368616E6765645A
:1052F4000080005365637572697479206F66662057
:1053040020202000202020202020202020202020B9
:1053140020202020008400546F67676C6520627928
:105324002053454C454354005965732020202020C8
:10533400202020202020202000204E6F202020200C
:10534400202020202020202020004F746865722017
:10535400436F6E6669672E20202000536176696E64
:10536400672E2E2E00507265737320456E7465721D
:105374002F45736320004D6F64756C652078783A0F
:08538400207878782020000059
:00000001FF
