S01E00004169726C6162314D6963726F6368697053747564696F2E7372656374
S11300000C9480020C94A6020C94A6020C94A602F2
S11300100C94A6020C94A6020C94A6020C94A602BC
S11300200C94A6020C94A6020C94A6020C94A602AC
S11300300C94A6020C94A6020C94CB0D0C94A6026C
S11300400C94A6020C94A6020C94A6020C94A6028C
S11300500C94A6020C94A6020C94A6020C94A6027C
S11300600C94A6020C94A6020C94A6020C94A6026C
S11300700C94A6020C94A6020C94A6020C94A6025C
S11300800C94A6020C94A6020C94A6020C94A6024C
S11300900C94A6020C94A6020C94A6020C94A6023C
S11300A00C94A6020C94A6020C94A6020C94A6022C
S11300B00C94A6020C94A6020C94E7210C94A602BC
S11300C00C94A6020C94A6020C94A6020C94A6020C
S11300D00C94A6020C94A6020C94A6020C94A602FC
S11300E00C94A6020C94A6020C94E7280C94A60285
S11300F00C9449290C94A6020C94A6020C94A60212
S11301000C94A6020C94A6020C94A6020C94A602CB
S11301100C94A6020C94A6020C94A6020C94A602BB
S11301200C94A6020C94A6020C94A6020C94A602AB
S11301300C94A6020C94A6020C94A6020C94A6029B
S11301400C94A6020C94A6020C94A6020C94A6028B
S11301500C94A6020C94A6020C94A6020C94A6027B
S11301600C94A6020C94A6020C94A6020C94A6026B
S11301700C94A6020C94A6020C94A6020C94A6025B
S11301800C94A6020C94A6020C94A6020C94A6024B
S11301900C94A6020C94A6020C94A6020C94A6023B
S11301A00C94A6020C94A6020C94A6020C94A6022B
S11301B00C94A6020C94A6020C94A6020C94A6021B
S11301C00C94A6020C94A6020C94A6020C94A6020B
S11301D00C94A6020C94A6020C94A6020C94A602FB
S11301E00C94A6020C94A6020C94A6020C94A602EB
S11301F00C94A6020C94A6020C94A602570E5D1150
S11302009E1210157D207D20251739177D207D2015
S11302107D207D207D207D207D207D207D207D20F2
S11302207D207D207D207D207D207D207D207D20E2
S11302307D207D207D207D207D207D207D207D20D2
S11302407D207D207D207D207D207D207D207D20C2
S11302507D207D207D207D207D207D207D207D20B2
S11302607D207D207D207D207D207D207D207D20A2
S11302707D207D207D207D207D207D207D207D2092
S11302807D207D207D207D207D207D207D207D2082
S11302907D207D207D207D207D207D207D207D2072
S11302A07D207D207D207D207D207D207D207D2062
S11302B07D207D207D207D207D207D207D207D2052
S11302C07D207D207D207D207D207D207D207D2042
S11302D07D207D207D207D207D207D207D207D2032
S11302E07D207D207D207D207D207D207D207D2022
S11302F07D207D207D207D207D207D20BE17EE1871
S1130300371C4B1D7E1C141EC01ED01E2220F4124E
S113031000130013F412F41200130013F4120C135C
S11303200C13F412F412F412F4120C130C13F4124E
S11303300C130C13F4120C13F412F412F412F4123E
S1130340F412221322132213221322132213221330
S11303504A134A134A1327132F13451348134813F8
S113036048134813481348134A132A132A13DA2646
S1130370F026CB28CB28CB28CB28CB28CB28CB28BE
S1130380CB28CB28CB28CB28CB28CB28CB28062797
S11303900A270D2714273A27CB28F2271C28CB2815
S11303A0CB28CB28CB28CB28CB28CB28CB28CB28B1
S11303B0CB28CB28CB28CB28CB28CB28CB28CB28A1
S11303C0CB28CB28CB28CB28CB28CB28CB28CB2891
S11303D0CB28CB287927A427CB27CB28CB28CB28FD
S11303E0CB285227CB28CB28CB28CB28CB28CB28EB
S11303F0CB28CB28CB28CB28CB28CB28CB28CB2861
S1130400CB28CB28CB28CB28CB28CB28CB28CB2850
S1130410CB28CB28CB28CB28CB28CB28CB28CB2840
S1130420CB28CB28CB28CB28CB28CB28CB284A28B1
S113043066289928CB28CB28CB28CB28CB28CB28B7
S1130440CB28CB28CB28CB28CB28CB28CB28B42827
S11304500C940C130C943A270C9439170C947927A8
S11304600C945D110C944A130C94EE180C94BE1762
S11304700C9448130C9414270C9400130C946628C1
S11304800C94D01E0C947E1C0C94371C0C94F227F4
S11304900C9445130C947D200C9422200C940D276D
S11304A00C94141E0C94F0260C9452270C940627DA
S11304B00C94B4280C944A280C94570E0C941015E0
S11304C00C94CB270C94CB280C94F4120C940A278C
S11304D00C94A4270C944B1D0C941C280C942F13DF
S11304E00C94C01E0C9425170C9427130C94992873
S11304F00C949E120C94DA260C942A130C94221356
S113050011241FBECFEFCDBFDFE3DEBF00E00CBF81
S113051018BE19BE1ABE1BBE10E2A0E0B0E2ECE5A4
S1130520F3E500E00BBF02C007900D92A83EB107AF
S1130530D9F71BBE28E3A8EEB0E201C01D92AC308F
S1130540B207E1F70E94BA0B0C94AC290C9400009A
S113055090E0FC01EE0FFF1FEE0FFF1FEE0FFF1FD9
S1130560E854F74D2781222364F42DE1289FF001FC
S1130570299FF00D1124E156F04D2281211127C04D
S11305802DC0FC01EE0FFF1FEE0FFF1FEE0FFF1F2C
S1130590E854F74D2681222364F02DE1289FF001D1
S11305A0299FF00D1124E156F04D2081211111C035
S11305B015C0222384F42DE1289FF001299FF00D1A
S11305C01124E156F04D2181211107C007C021E01B
S11305D005C021E003C020E001C021E0222319F17D
S11305E0FC01EE0FFF1FEE0FFF1FEE0FFF1FE8547D
S11305F0F74D2181222394F4FC01E35BFB4D208120
S113060025FF0CC0EAE9F1E3138212821182108201
S1130610FC01E654F24D21E0208309C0FC01E654BC
S1130620F24D108204C0FC01E654F24D1082109287
S11306309F3180E00BC0E82FF0E0E654F24D90814A
S1130640992319F091E090939F318F5F803198F353
S1130650089540E01BC0242F30E0F901E857FE4C18
S11306609081977F90835DE1529FF001539FF00D3D
S11306701124E156F04DE80FF11D5081552329F066
S1130680F901E857FE4C986090834F5F403118F3AE
S113069081E080933924089580E001C08F5F803128
S11306A0E8F38FEF089580E001C08F5F8031E8F3B5
S11306B00895EDE4F4E240894B7F408B50E080E004
S11306C064C0282F30E09DE1929FF001939FF00DCC
S11306D01124E156F04D978591110CC09DE1929F34
S11306E0F001939FF00D1124E156F04D9685992366
S11306F009F44AC0F901E65CFB4D908191509230B7
S113070008F042C0F901EE0FFF1FEE0FFF1FEE0FBE
S1130710FF1FE854F74D9781992324F1F901EE0F57
S1130720FF1FEE0FFF1FEE0FFF1FE854F74D9681DA
S113073099235CF06DE1629FF001639FF00D112439
S1130740E156F04D678961110DC09923ECF49DE1E8
S1130750929FF001939FF00D1124E156F04D908D7E
S1130760992391F0F901EE0FFF1FEE0FFF1FEE0F1B
S1130770FF1FE854F74D9181992334F4F901E35BA9
S1130780FB4D908195FD51E08F5F803108F499CF46
S1130790552319F0446040935D2480915D2482FFC9
S11307A019C0E0914C24A1E0AE0FF0E0EE58FA4DF0
S11307B080ED8083E1E0EA0FB0E0AE58BA4D81E00D
S11307C08C9391E09E0F90934C24F0E0EE58FA4DF8
S11307D0808317C0E0914C24A1E0AE0FF0E0EE5806
S11307E0FA4D80ED8083E1E0EA0FB0E0AE58BA4DF7
S11307F081E08C938E0F80934C24F0E0EE58FA4DF8
S1130800108281E0809339240895EDE4F4E2408974
S11308104E7F408B50E080E05FC0282F30E09DE1A8
S1130820929FF001939FF00D1124E156F04D9585B0
S1130830992309F450C0F901E65CFB4D9081915075
S1130840923008F048C0F901EE0FFF1FEE0FFF1FB2
S1130850EE0FFF1FE854F74D9781992324F1F90116
S1130860EE0FFF1FEE0FFF1FEE0FFF1FE854F74DB3
S1130870968199235CF06DE1629FF001639FF00D16
S11308801124E156F04D678961110DC099231CF5BF
S11308909DE1929FF001939FF00D1124E156F04DDC
S11308A0908D9923C1F0F901EE0FFF1FEE0FFF1F8A
S11308B0EE0FFF1FE854F74D9181992364F4F90179
S11308C0E35BFB4D908195FD03C092FD03C003C023
S11308D051E001C051E08F5F803108F49ECF552371
S11308E019F0416040935D2480915D2480FF19C01C
S11308F0E0914C24A1E0AE0FF0E0EE58FA4D80ED0B
S11309008083E1E0EA0FB0E0AE58BA4D1C9281E07A
S11309108E0F80934C24F0E0EE58FA4D81E08083F2
S113092017C0E0914C24A1E0AE0FF0E0EE58FA4D70
S113093080ED8083E1E0EA0FB0E0AE58BA4D1C923E
S113094081E08E0F80934C24F0E0EE58FA4D108233
S113095081E080933924089540E050E080E0E0C0D5
S1130960282F30E0F901E65CFB4D908191509230E4
S113097008F0D5C0F901EE0FFF1FEE0FFF1FEE0FB9
S1130980FF1FE854F74D97819923ECF59DE1929F61
S1130990F001939FF00D1124E156F04D92899923B3
S11309A091F0F901EE0FFF1FEE0FFF1FEE0FFF1F77
S11309B0E854F74D9181992334F4F901E35BFB4D3D
S11309C0908195FD51E09DE1929FF001939FF00D80
S11309D01124E156F04D9589992309F4A0C0F90139
S11309E0EE0FFF1FEE0FFF1FEE0FFF1FE854F74D32
S11309F0918199230CF093C0F901E35BFB4D908145
S1130A0095FD88C08CC0F901EE0FFF1FEE0FFF1F8C
S1130A10EE0FFF1FE854F74D96819923ECF19DE109
S1130A20929FF001939FF00D1124E156F04D9089AF
S1130A30992391F0F901EE0FFF1FEE0FFF1FEE0F48
S1130A40FF1FE854F74D9181992334F4F901E35BD6
S1130A50FB4D908195FD51E09DE1929FF001939FA4
S1130A60F00D1124E156F04D9389992309F457C0F0
S1130A70F901EE0FFF1FEE0FFF1FEE0FFF1FE854EB
S1130A80F74D918199230CF04AC0F901E35BFB4DCA
S1130A90908195FD41C043C099230CF040C09DE175
S1130AA0929FF001939FF00D1124E156F04D91892E
S1130AB0992391F0F901EE0FFF1FEE0FFF1FEE0FC8
S1130AC0FF1FE854F74D9181992334F4F901E35B56
S1130AD0FB4D908195FD51E09DE1929FF001939F24
S1130AE0F00D1124E156F04D94899923C1F0F901D8
S1130AF0EE0FFF1FEE0FFF1FEE0FFF1FE854F74D21
S1130B009181992364F4F901E35BFB4D908195FD98
S1130B1005C005C041E003C041E001C041E08F5F72
S1130B20803108F41DCFEDE4F4E280898F7C808B62
S1130B30552319F0806280935D24442329F0EDE469
S1130B40F4E280898061808B80915D2485FF19C0E7
S1130B50E0914C24A1E0AE0FF0E0EE58FA4D84E8A9
S1130B608083E1E0EA0FB0E0AE58BA4D1C9281E018
S1130B708E0F80934C24F0E0EE58FA4D81E0808390
S1130B8017C0E0914C24A1E0AE0FF0E0EE58FA4D0E
S1130B9084E88083E1E0EA0FB0E0AE58BA4D1C92DD
S1130BA081E08E0F80934C24F0E0EE58FA4D1082D1
S1130BB080915D2484FF19C0E0914C24A1E0AE0F24
S1130BC0F0E0EE58FA4D85E88083E1E0EA0FB0E00A
S1130BD0AE58BA4D1C9281E08E0F80934C24F0E005
S1130BE0EE58FA4D81E0808317C0E0914C24A1E0D7
S1130BF0AE0FF0E0EE58FA4D85E88083E1E0EA0FAD
S1130C00B0E0AE58BA4D1C9281E08E0F80934C2414
S1130C10F0E0EE58FA4D108281E080933924089573
S1130C20282F30E0F901E35BFB4D90819D7F908399
S1130C30662309F44CC0F901EE0FFF1FEE0FFF1FEE
S1130C40EE0FFF1FE854F74D478144238CF44DE128
S1130C50429FF001439FF00D1124E156F04D458170
S1130C604423A9F1F901E35BFB4D926090832FC00B
S1130C70F901EE0FFF1FEE0FFF1FEE0FFF1FE854E9
S1130C80F74D468144238CF04DE1429FF001439F90
S1130C90F00D1124E156F04D43814423C1F0F901D4
S1130CA0E35BFB4D9260908312C0442384F44DE1D6
S1130CB0429FF001439FF00D1124E156F04D448111
S1130CC0442329F0F901E35BFB4D92609083F90121
S1130CD0E159FE4C1082F901E35BFB4D9081492FF1
S1130CE0427091FF10C09DE1929FF001939FF00D1F
S1130CF01124E156F04D9185992329F0F901E15928
S1130D00FE4C9AE090834423C9F0E0914C24A1E086
S1130D10AE0FF0E0EE58FA4D92E89083E1E0EA0F6E
S1130D20B0E0AE58BA4D8C9381E08E0F80934C2482
S1130D30F0E0EE58FA4D81E0808318C0E0914C2435
S1130D40A1E0AE0FF0E0EE58FA4D93E89083E1E0B5
S1130D50EA0FB0E0AE58BA4D8C9381E08E0F8093C9
S1130D604C24F0E0EE58FA4D81E0808381E08093DA
S1130D70392408951F93CF93DF93182FC82FD0E001
S1130D808DE18C9FF0018D9FF00D1124E156F04D03
S1130D90848D8111A5C08DE18C9FF0018D9FF00D94
S1130DA01124E156F04D87818823C1F19DE19C9F78
S1130DB0F0019D9FF00D1124E156F04D9681992389
S1130DC069F1FE01EE0FFF1FEE0FFF1FEE0FFF1F75
S1130DD0E854F74D81818823BCF4FE01E35BFB4DAD
S1130DE0808185FF11C0FE01EF5BF64D808181118A
S1130DF079C061E0812F0E94100681E0FE01EF5B63
S1130E00F64D808391E077C060E0812F0E94100648
S1130E10FE01EF5BF64D108290E06DC0882361F116
S1130E209DE19C9FF0019D9FF00D1124E156F04D32
S1130E309681911121C0FE01E35BFB4D808185FF0A
S1130E4011C0FE01EF5BF64D808181114DC061E060
S1130E50812F0E94100681E0FE01EF5BF64D808336
S1130E6091E049C060E0812F0E941006FE01EF5B13
S1130E70F64D108290E03FC0811138C08DE18C9F07
S1130E80F0018D9FF00D1124E156F04D86818823E9
S1130E9079F1FE01EE0FFF1FEE0FFF1FEE0FFF1F94
S1130EA0E854F74D818188238CF4FE01EF5BF64D05
S1130EB0808181111FC061E0812F0E94100681E0B2
S1130EC0FE01EF5BF64D808391E015C060E0812F59
S1130ED00E941006FE01EF5BF64D108290E00BC0FD
S1130EE090E009C091E007C091E005C090E003C024
S1130EF090E001C091E08DE18C9FF0018D9FF00D99
S1130F001124E156F04D80858823C1F0FE01E35B96
S1130F10FB4D808182FF09C061E0812F0E94100691
S1130F20CF5BD64D81E0888309C0911107C060E092
S1130F30812F0E941006CF5BD64D1882DF91CF918E
S1130F401F91089520E027C040915D2480E890E03F
S1130F50022E02C0959587950A94E2F750E0842307
S1130F609523892B21F088E08093450603C088E00F
S1130F708093460680E1809345061092B62603C00E
S1130F808F5F8093B6268091B6268530C8F380E1C2
S1130F90809346062F5F2830B8F240E08CC08091E1
S1130FA0ED228130D9F5692F28E030E0092E02C006
S1130FB0359527950A94E2F720FF30C0A42FB0E0BE
S1130FC0E7E0F0E0EA1BFB0BE857FE4C208130E041
S1130FD0092E02C0359527950A94E2F720FF04C034
S1130FE088E08093450603C088E080934606EFE0DE
S1130FF0F0E0EA1BFB0BE857FE4C208130E002C016
S1131000359527956A95E2F720FF04C080E2809326
S1131010450634C080E28093460630C0642F70E0F9
S1131020E7E0F0E0E61BF70BE35BFB4D2081A92F23
S113103030E0092E02C0359527950A94E2F720FF87
S113104004C088E08093450603C088E08093460688
S1131050EFE0F0E0E61BF70BE35BFB4D208130E0B3
S113106002C035952795AA95E2F720FF04C080E2D7
S11310708093450603C080E280934606E5E4F6E0EB
S113108080E1808380E480831092B62603C08F5F62
S11310908093B6268091B6268530C8F3E6E4F6E060
S11310A080E1808380E480839F5F01C090E096307C
S11310B008F475CF4F5F4830C8F381E0809326066B
S11310C01092B62603C08F5F8093B6268091B62611
S11310D08530C8F381E08093250682E0809346063C
S11310E01092B62603C08F5F8093B6268091B626F1
S11310F08530C8F382E080934506089580E090E04F
S113110030E018C0FC01E65CFB4D2081213089F4FD
S1131110FC01EE0FFF1FEE0FFF1FEE0FFF1FE85441
S1131120F74D278122232CF4FC01EC54F44D20814B
S1131130322B0196803191052CF3E0914C24A1E0EF
S1131140AE0FF0E0EE58FA4D80ED8083E1E0EA0F57
S1131150B0E0AE58BA4D82E08C9381E08E0F80935C
S11311604C24F0E0EE58FA4D3083089580E001C03D
S11311708F5F8031E8F38FEF0895EDE4F4E2408966
S11311804D7F408B50E080E011C0282F30E0F90102
S1131190E35BFB4D908192FF08C0F901E65CFB4DD7
S11311A090819150923008F451E08F5F803168F360
S11311B08091C42B811151E0552339F080913C2951
S11311C0882319F0426040935D24EDE4F4E28089C1
S11311D0877F808B80E02BC0282F30E0F901E35B10
S11311E0FB4D908193FF22C0F901EE0FFF1FEE0F1C
S11311F0FF1FEE0FFF1FE854F74D47814423B4F45B
S11312004DE1429FF001439FF00D1124E156F04D52
S11312102685222359F094FF09C090913D299923F2
S113122029F0EDE4F4E290899860908B8F5F80312F
S113123098F281E08093392408950F931F93CF93FC
S1131240DF9383E991E10197F1F700C00000E1E049
S1131250F6E08FE7808380E8808383E08093E20771
S11312609CEF90936206A1E2B6E09EE09C93C1E4F9
S1131270D6E095E09883E2E8F6E094E0908398E085
S1131280909381069AE7988391E09C9380830E94CF
S1131290D0280E9435222FB7E0E5F0E080818160FC
S11312A08083E8E6F0E080818E7F80838091510026
S11312B080FFFCCFE0E5F0E0858198ED94BF82E10A
S11312C08583808180618083E0E4F0E0818180789F
S11312D08C6094BF81838091510084FFFCCFE0E453
S11312E0F0E08081887F846098ED94BF8083E0E59E
S11312F0F0E08081817F8083E0EBF0E08481807F77
S113130084832FBF83E991E10197F1F700C00000C6
S11313101092ED221092C42B20E00CC0822F90E09A
S1131320FC01E35BFB4D30E13083FC01E857FE4CEC
S113133010822F5F203190F380E480935D240E941B
S1131340A207E0EAF1E31382128211821082EAE931
S1131350F1E3138212821182108220E01FC0822FD7
S113136090E0FC01E654F24D1082FC01E159FE4C80
S11313701082FC01E15AFB4D1082FC01E352FD4D49
S11313801082FC01E25CF44D1082FC01EF5BF64D2F
S11313901082FC01EC54F44D10822F5F2031F8F2DE
S11313A010929F3110924B24109299311092EE2298
S11313B010924C24109240291092712510923824D6
S11313C081E08093342410924A241092C52B109209
S11313D036241092EF2280933A29109239291092E0
S11313E03524109237240E94B70D6EE170E281E03B
S11313F090E00E948E236FE270E280E090E00E9411
S11314008E2361E370E281E090E00E948E231092CB
S1131410702410926F24E2EAF0E080818760808378
S11314200E948D20789420E130E04AE354E260E0A9
S113143070E080E790E00E94A220C0E000E110E0AC
S113144010C09DE1C99FA00111244156504D2DE1CA
S113145030E0B80180E790E00E94A220035E1F4FB5
S1131460CF5FC03170F325E030E04BE359E2B801BF
S113147080E790E00E94A2208AE090E00E94110E92
S113148020E014C0E22FF0E0EE0FFF1FEE0FFF1F6D
S1131490EE0FFF1FE854F74DE80FF11D91E0908324
S11314A08F5F01C080E0883068F32F5F2031D0F374
S11314B080E007C0E82FF0E0E158FE4C91E0908313
S11314C08F5F8830B8F38AE090E00E94110EC0E08C
S11314D007C080E00E948D2481E00E948D24CF5FAC
S11314E0C436B8F3109238291092E820C0E039C00D
S11314F08C2F90E0FC01EE0FFF1FEE0FFF1FEE0F8D
S1131500FF1FE854F74D2481222314F020E001C08A
S113151022E0FC01EE0FFF1FEE0FFF1FEE0FFF1F77
S1131520E854F74D358133230CF42160FC01E65C6B
S1131530FB4D30812317A1F0FC01E65CFB4D2083B9
S11315406FE270E280E090E00E948E2362E470E239
S113155081E090E00E948E2384E190E00E94110ECD
S1131560CF5FC03128F2EAE3F4E281E08083818333
S1131570828383838483858386838783808781872B
S113158082878387848785878687878710E068C0FA
S1131590C12FD0E0FE01E35BFB4D10828DE18C9FF7
S11315A0F0018D9FF00D1124E156F04D86898823BA
S11315B009F451C080E2FE01E35BFB4D80838DE1C1
S11315C08C9FF0018D9FF00D1124E156F04D878121
S11315D0882379F08DE18C9FF0018D9FF00D11240B
S11315E0E156F04D8681811104C061E0812F0E9493
S11315F01006FE01EE0FFF1FEE0FFF1FEE0FFF1F81
S1131600E854F74D8181882304F58DE18C9FF00126
S11316108D9FF00D1124E156F04D8781882379F0D8
S11316208DE18C9FF0018D9FF00D1124E156F04D5A
S11316308681882321F061E0812F0E941006C35B1C
S1131640DB4D8881816088830AC0C35BDB4D888160
S11316508061888304C0C35BDB4D80E188831F5FA6
S1131660103108F495CF80E480935D2404C0812F69
S11316700E94A8021F5F1031D0F30E94AC040E94A4
S113168005040E9459030E94BD080E94A20780E03D
S113169016C0E82FF0E0E65CFB4D9081913019F024
S11316A0923039F00BC090916F249F5F90936F2418
S11316B005C0909170249F5F909370248F5F803158
S11316C040F361E570E280E090E00E948E236EE1D9
S11316D070E281E090E00E948E230E94EB2588EE68
S11316E093E00E94110EE6E6F6E081E0808382E05A
S11316F0808384E0808388E0808380E18093650632
S113170080914806837479F481E080933F296FE2E5
S113171070E280E090E00E948E2363E570E281E055
S113172090E00E948E2382E390E00E94110E61E516
S113173070E280E090E00E948E2364E670E281E033
S113174090E00E948E236FE270E280E090E00E94BD
S11317508E2360914B2481E1689FB0011124605174
S11317607C4D81E090E00E948E23DF91CF911F9108
S11317700F910895CF93DF93CDB7DEB72997CDBFEF
S1131780DEBF0E941D09EAE9F1E323818DEC289F65
S1131790912D112496959695969530E3390F3983BA
S11317A0990F392F330F330F930F291B922F905D0D
S11317B09A834AE34B832281289F912D1124969585
S11317C09695969530E3390F3C83990F392F330F53
S11317D0330F930F291B922F905D9D834E8391812C
S11317E0989F812D112486958695869520E3280F50
S11317F02F83880F282F220F220F820F981B892FE7
S1131800805D888765E770E280E090E00E948E2327
S11318101986BE016F5F7F4F81E090E00E948E23A6
S1131820109240291092EE2210929931E2E7F5E2EB
S113183084E9808382E080934C24118280E011C08B
S1131840E0914C2491E09E0F90934C24F0E0A82F5B
S1131850B0E0A55CB64D9C91EE58FA4D9F7790830D
S11318608F5F853068F380914C24882369F08091E0
S11318703424882349F081E08093402980917225A3
S11318808093A00A1092342484E690E00E94110E02
S113189020E046C0A0914C24E1E0EA0FB0E0AE584D
S11318A0BA4D83E98C9381E08E0F80934C24F0E051
S11318B0EE58FA4D208390E016C08DE1289FF00188
S11318C01124E156F04DE90FF11D80818170808370
S11318D0E0914C2431E03E0F30934C24F0E0EE587C
S11318E0FA4D80839F5F9D3140F380914C24E091B9
S11318F040298E1781F080913424882361F081E09F
S11319008E0F80934029F0E0EE58FA4D8081809349
S1131910A00A10923424809134248111FCCF2F5FCB
S1131920203108F4B7CF8AE090E00E94110E1092A3
S1131930402910924C241092EE2210929931F12CED
S113194079C00F2D10E0F801E159FE4C8081882305
S113195081F08150F801E159FE4C8083811109C066
S1131960F801E35BFB4D80818D7F808381E0809370
S11319703924F801E15AFB4D8081882381F081509C
S1131980F801E15AFB4D8083811109C0F801E35B42
S1131990FB4D80818D7F808381E080933924F80121
S11319A0E352FD4D8081882391F08150F801E35288
S11319B0FD4D808381110BC0F801E35BFB4D8081F9
S11319C0846080830E94BD0881E080933924F801FB
S11319D0E25CF44D8081882361F18150F801E25C7E
S11319E0F44D8083811125C08F2D0E944C03F80192
S11319F0E35BFB4D90819F7E90838430B8F4E0914B
S1131A004C24A1E0AE0FF0E0EE58FA4D93EC908335
S1131A10E1E0EA0FB0E0AE58BA4D8C9381E08E0F4E
S1131A2080934C24F0E0EE58FA4D108281E08093CC
S1131A303924F394EFE0EF1508F083CF8091392433
S1131A40882321F0109239240E94A20790919B319F
S1131A508091A131981709F44EC00AE911E3F80105
S1131A6033818DEC389F212D1124269526952695BA
S1131A7040E3420F4983220F422F440F440F240FA7
S1131A80321B305D3A835AE35B833281389F212DC8
S1131A90112426952695269540E3420F4C83220F68
S1131AA0422F440F440F240F321B305D3D835E836D
S1131AB0989F812D112486958695869520E3280F7D
S1131AC02F83880F282F220F220F820F981B905DDF
S1131AD09887198665E770E280E090E00E948E2383
S1131AE0BE016F5F7F4F81E090E00E948E23F8017A
S1131AF081818093A1310E94D82580913829E09179
S1131B00E8208E1769F081E08E0F8093E820F0E0E2
S1131B10EE0FFF1FE954F94D808191810E94230E3D
S1131B2081E080933E29909199318091EE2298131F
S1131B300E94B12680914C24E09140298E1709F42B
S1131B40FECE80913424882309F4F9CE81E08E0FEF
S1131B5080934029F0E0EE58FA4D80818093A00AEA
S1131B60109234248091A10A85FFFCCFE8CEF8942A
S1131B7083E08093000882E0809306088DE59AE56F
S1131B808093260890932708E2EAF0E0808182603F
S1131B908083789408951F920F920FB60F921124A8
S1131BA008B60F9218BE0BB60F921BBE8F93EF931D
S1131BB0FF9380919E318F5F80939E318A3010F025
S1131BC010929E3180919E3181111FC080919F316E
S1131BD08823D9F0EAE9F1E38081865F80838B353D
S1131BE0A0F0108281818F5F81838C3370F0118229
S1131BF082818F5F82838C3340F0128283818F5F76
S1131C008383883110F010929D31FF91EF918F9171
S1131C100F900BBE0F9008BE0F900FBE0F901F9039
S1131C20189541E050E00BC02F5F3F4F02C020E009
S1131C3030E0293E63E03607BCF34F5F5F4F841703
S1131C409507ACF708958F929F92AF92BF92CF926F
S1131C50DF92EF92FF920F931F93CF93DF93CDB751
S1131C60DEB76197CDBFDEBF282F2778AC0156952C
S1131C7047955695479556954795342F3F70E32ED3
S1131C808C0100271170877892708738924009F48C
S1131C9028E8822F90E08938910510F00C947D207B
S1131CA0FC018827E250FF4F8F4F0C948F298091BD
S1131CB0ED22813011F40C947D20F12CF701E65CC7
S1131CC0FB4D8081813029F0823009F44FC20C949D
S1131CD07D20012B09F0AAC1F701EE0FFF1FEE0FC3
S1131CE0FF1FEE0FFF1FE854F74D878188230CF088
S1131CF053C08DE18E9DF0018F9DF00D1124E156AE
S1131D00F04D8485882309F447C00F2EFDE4CF2EBF
S1131D10F4E2DF2EF02D8701035B1B4DF801808177
S1131D208C6080830E940504F6018089877F808B04
S1131D30F801908190FF04C0F8019061908320C065
S1131D40F701EE0FFF1FEE0FFF1FEE0FFF1FE8540A
S1131D50F74D27812223A4F42DE12E9DF0012F9D20
S1131D60F00D1124E156F04D2685222349F094FF0D
S1131D7007C090913D29992319F0886080935D24D0
S1131D8011E0F701EC54F44D10830E947E080E9488
S1131D90530310933924C6C0F701EE0FFF1FEE0F53
S1131DA0FF1FEE0FFF1FE854F74D868188230CF4C4
S1131DB05CC09DE19E9DF0019F9DF00D1124E156B4
S1131DC0F04D9285992309F450C0F701E35BFB4D74
S1131DD080818C6080830E9405048DE18E9DF001DA
S1131DE08F9DF00D1124E156F04D8789882309F465
S1131DF099C0EDE4F4E28089877F808BF701E35B8F
S1131E00FB4D808180FF05C0F701E35BFB4D8061E2
S1131E108083F701EE0FFF1FEE0FFF1FEE0FFF1F72
S1131E20E854F74D86818823D4F08DE18E9DF0012E
S1131E308F9DF00D1124E156F04D8685882379F0AD
S1131E40F701E35BFB4D808184FF09C080913D294C
S1131E50882329F0EDE4F4E280898860808B0E9475
S1131E60530381E0809339245DC088230CF05AC069
S1131E708DE18E9DF0018F9DF00D1124E156F04D02
S1131E808385882309F44EC0F701E35BFB4D808111
S1131E908C6080830E9405048DE18E9DF0018F9DEE
S1131EA0F00D1124E156F04D808D8823D9F1EDE435
S1131EB0F4E28089877F808BF701E35BFB4D8081AF
S1131EC080FF05C0F701E35BFB4D80618083F70170
S1131ED0EE0FFF1FEE0FFF1FEE0FFF1FE854F74D2D
S1131EE086818823D4F48DE18E9DF0018F9DF00DC1
S1131EF01124E156F04D8685882379F0F701E35BE0
S1131F00FB4D808184FF09C080913D29882329F0FD
S1131F10EDE4F4E280898860808B0E94530381E0C1
S1131F2080933924F701EE0FFF1FEE0FFF1FEE0F12
S1131F30FF1FE854F74D878188230CF59DE19E9D92
S1131F40F0019F9DF00D1124E156F04D918D9923E0
S1131F50B1F0E091382981E08E0F80933829F0E0C8
S1131F60C701880F991F880F991F880F991F8360D5
S1131F70EE0FFF1FE954F94D8083918353C0F7019D
S1131F80EE0FFF1FEE0FFF1FEE0FFF1FE854F74D7C
S1131F90968199231CF12DE12E9DF0012F9DF00DCA
S1131FA01124E156F04D228D2223C1F08823B4F090
S1131FB0E091382981E08E0F80933829F0E0C70141
S1131FC0880F991F880F991F880F991F8360EE0F40
S1131FD0FF1FE954F94D8083918324C0992314F59C
S1131FE09DE19E9DF0019F9DF00D1124E156F04D61
S1131FF0938D9923B9F08823ACF0E091382981E0DE
S11320008E0F80933829F0E0C701880F991F880F3D
S1132010991F880F991F8360EE0FFF1FE954F94D34
S1132020808391830E94BD080C947D20F701EE0FFC
S1132030FF1FEE0FFF1FEE0FFF1FE854F74D8781C0
S113204088237CF58DE18E9DF0018F9DF00D112488
S1132050E156F04D8485882321F1F701E35BFB4DC4
S11320609081892F837F808395FF11C0F701EE0F44
S1132070FF1FEE0FFF1FEE0FFF1FE854F74D918176
S113208099232CF4F701E35BFB4D8F7E8083F701EA
S1132090EC54F44D10820E947E0881E08093392430
S11320A05FC0F701EE0FFF1FEE0FFF1FEE0FFF1FC4
S11320B0E854F74D868188234CF19DE19E9DF00103
S11320C09F9DF00D1124E156F04D92859923F1F076
S11320D0F701E35BFB4D9081892F837F808395FF1C
S11320E011C0F701EE0FFF1FEE0FFF1FEE0FFF1FD2
S11320F0E854F74D918199232CF4F701E35BFB4DF0
S11321008F7E808381E0809339242AC0882344F51C
S11321108DE18E9DF0018F9DF00D1124E156F04D5F
S113212083858823E9F0F701E35BFB4D9081892FD8
S1132130837F808395FF11C0F701EE0FFF1FEE0F21
S1132140FF1FEE0FFF1FE854F74D918199232CF4E4
S1132150F701E35BFB4D8F7E808381E0809339241C
S11321600E9405040E94BD080C947D20012B09F0F7
S11321707BC0F701EE0FFF1FEE0FFF1FEE0FFF1FD7
S1132180E854F74D868188230CF19DE19E9DF00172
S11321909F9DF00D1124E156F04D92859923B1F0E5
S11321A0E091382981E08E0F80933829F0E0C7014F
S11321B0880F991F880F991F880F991F8260EE0F4F
S11321C0FF1FE954F94D808391834AC088230CF59D
S11321D08DE18E9DF0018F9DF00D1124E156F04D9F
S11321E083858823B1F0E091382981E08E0F8093B4
S11321F03829F0E0C701880F991F880F991F880FAD
S1132200991F8260EE0FFF1FE954F94D808391837B
S113221027C0F701EE0FFF1FEE0FFF1FEE0FFF1F8A
S1132220E854F74D87818823DCF48DE18E9DF0011D
S11322308F9DF00D1124E156F04D8485882381F0A3
S1132240F701E35BFB4D80818C60808380FD05C0DA
S1132250F701E35BFB4D8061808381E08093392447
S11322600E94BD080C947D20F701EE0FFF1FEE0FB6
S1132270FF1FEE0FFF1FE854F74D87818823CCF42E
S11322808DE18E9DF0018F9DF00D1124E156F04DEE
S11322908485882371F0F701E35BFB4D808180FF27
S11322A008C0F701E35BFB4D837E808381E080936C
S11322B039240E94BD080C947D20CE2CD12CF6012B
S11322C0E65CFB4D8081813029F0823009F4ACC09A
S11322D00C947D20012B09F063C0F601E35BFB4DF8
S11322E0808185FF3FC08F01816080830E94AC04A0
S11322F08E2D0E94A802F8018081837F80839091B3
S11323003B299923D9F0F601EE0FFF1FEE0FFF1FB3
S1132310EE0FFF1FE854F74D918199237CF485FD5E
S11323200AC00CC0E82FF0E0E35BFB4D9081937F83
S113233090838F5F01C080E08031A0F30E94BD08CC
S11323400E9405040E9459038E2D0E94BA06F601CC
S1132350E35BFB4D80818F7E808381E08093392411
S11323600C947D208DE18C9DF0018D9DF00D112448
S1132370E156F04D8681882371F08DE18C9DF0014A
S11323808D9DF00D1124E156F04D8781811103C01C
S11323908E2D0E94BA068E2D0E94A8020C947D20D8
S11323A0F601E35BFB4D80818061808385FF18C06B
S11323B08DE18C9DF0018D9DF00D1124E156F04DC1
S11323C08681882319F08E2D0E94BA060E94AC04DF
S11323D08E2D0E94A8020E9405040E94590319C070
S11323E08DE18C9DF0018D9DF00D1124E156F04D91
S11323F08681882371F08DE18C9DF0018D9DF00D17
S11324001124E156F04D8781811103C08E2D0E9465
S1132410BA06F601E35BFB4D80818E7F808381E009
S1132420809339240C947D20012B09F077C0F601A8
S1132430E35BFB4D808185FD02C00C947D208E2DD5
S11324400E944C038430B8F4E0914C24A1E0AE0F18
S1132450F0E0EE58FA4D92EC9083E1E0EA0FB0E040
S1132460AE58BA4D8C9381E08E0F80934C24F0E0EB
S1132470EE58FA4D10820E94AC048E2D0E94A802E0
S1132480F601E35BFB4D8081837F808390913B2940
S11324909923B9F1F601EE0FFF1FEE0FFF1FEE0FA8
S11324A0FF1FE854F74D918199235CF585FD26C003
S11324B028C0812F0E944C038430B8F4E0914C244E
S11324C0A1E0AE0FF0E0EE58FA4D92EC9083E1E01B
S11324D0EA0FB0E0AE58BA4D8C9381E08E0F809332
S11324E04C24F0E0EE58FA4D1082E12FF0E0E35B6B
S11324F0FB4D8081837F80831F5F01C010E010311A
S1132500C0F20E94BD08F601E35BFB4D80818F7E23
S1132510808381E0809339240C947D200E94AC0454
S11325208E2D0E94A802F601E35BFB4D8081806141
S1132530808381E0809339240C947D208091ED2266
S1132540813009F02DC1012B11F00C947D20809174
S11325503F29882311F40C947D2081E1E6EDF0E21B
S1132560DE01119601900D928A95E1F70E2D10E08F
S113257090914B24292F30E08DE1809FF001819FC1
S1132580F00D1124E156F04DE20FF31F80818823F2
S113259061F08DE1809FF001819FF00D1124E156DF
S11325A0F04DE20FF31F10820CC08DE1809FF0010B
S11325B0819FF00D1124E156F04DE20FF31F81E0ED
S11325C08083F801E65CFB4D4081423029F5892E79
S11325D0912CF4013297EA31F105F0F48827E95798
S11325E0FE4F8F4F0C948F298DE1809FF001819FC6
S11325F0F00D1124E156F04DE20FF31F10820CC0D0
S11326008DE1809FF001819FF00D1124E156F04D82
S1132610E20FF31F81E08083892F90E0FC01339760
S1132620E631F105B8F58827EF55FE4F8F4F0C942E
S11326308F2960E08F2D0E9410068F2D0E94A80222
S1132640F39401C0F12CFFE0FF1598F723C00E941A
S1132650050420C00E9405040E9459031BC0413098
S113266089F40DC08E1549F05DE1859FF0011124B8
S1132670E156F04DE20FF31F10828F5F01C080E03E
S1132680803180F30E94590305C00E94590302C09F
S11326900E94AC04C80101966AE070E00E947B29A4
S11326A0605D6887805D898780914B248930F9F467
S11326B09DE1909FF001919FF00D1124E156F04DA2
S11326C0E80FF11D8081882349F080E58C8785E738
S11326D08D878CE68E8783E78F8723C083E48C877E
S11326E08FE68D878EE68E8784E78F871AC09DE1FB
S11326F0909FF001919FF00D1124E156F04DE80FE9
S1132700F11D8081882339F089E58C8785E68D87E2
S113271083E78E8706C080E28C878EE48D878FE600
S11327208E876FE270E280E090E00E948E23BE010B
S11327306F5F7F4F81E090E00E948E2380914B2455
S11327400E942903A0914C24E1E0EA0FB0E0AE58C6
S1132750BA4D83E98C9381E08E0F80934C24F0E092
S1132760EE58FA4DE08280E017C0E0914C2491E0ED
S11327709E0F90934C24F0E09DE1909FD001919F97
S1132780B00D1124A156B04DA80FB11D9C91EE5867
S1132790FA4D9F7790838F5F8D3138F30C947D20B1
S11327A0CE2CD12CF601E65CFB4D8081813029F0E2
S11327B0823009F499C00C947D20012B11F00C9403
S11327C07D20F601E35BFB4D808182FF45C00DE473
S11327D014E2F601E35BFB4D837F80838E2D0E9420
S11327E0BA060E940504F8018089877F808B80E007
S11327F02BC0282F30E0F901E35BFB4D908193FF60
S113280022C0F901EE0FFF1FEE0FFF1FEE0FFF1F97
S1132810E854F74D47814423B4F44DE1429FF0015D
S1132820439FF00D1124E156F04D2685222359F0E3
S113283094FF09C090913D29992329F0EDE4F4E235
S113284090899860908B8F5F803198F20E94530337
S113285081E08093392444C00DE414E2F601E35B83
S1132860FB4D8C6080838E2D0E94BA060E94050465
S1132870F8018089877F808B80E02BC0282F30E08F
S1132880F901E35BFB4D908193FF22C0F901EE0F48
S1132890FF1FEE0FFF1FEE0FFF1FE854F74D478198
S11328A04423B4F44DE1429FF001439FF00D112401
S11328B0E156F04D2685222359F094FF09C09091EA
S11328C03D29992329F0EDE4F4E290899860908BF6
S11328D08F5F803198F20E94530381E08093392402
S11328E00E94BD080C947D20012B11F00C947D20D6
S11328F0F601EE0FFF1FEE0FFF1FEE0FFF1FE85450
S1132900F74D8181882314F40C947D208E2D0E9430
S11329104C03F601E35BFB4D908192FF24C0F6016A
S1132920E35BFB4D937F90838430B8F4E0914C24B7
S1132930A1E0AE0FF0E0EE58FA4D92EC9083E1E0A6
S1132940EA0FB0E0AE58BA4D8C9381E08E0F8093BD
S11329504C24F0E0EE58FA4D10820E94530381E0BB
S11329608093392459C0F601E35BFB4D9B6290834D
S1132970F601E352FD4D9AE09083A0914C24E1E0EE
S1132980EA0FB0E0AE58BA4D92E89C93A1E0AE0FC6
S1132990F0E0EE58FA4DE082E1E0EA0FE0934C24D7
S11329A0B0E0AE58BA4D91E09C938430B0F4A1E00D
S11329B0AE0FF0E0EE58FA4D90EC9083E1E0EA0FB0
S11329C0B0E0AE58BA4D8C9391E09E0F90934C2496
S11329D0F0E0EE58FA4D91E090838430C0F4E09139
S11329E04C24A1E0AE0FF0E0EE58FA4D92EC908347
S11329F0E1E0EA0FB0E0AE58BA4D8C9381E08E0F5F
S1132A0080934C24F0E0EE58FA4D81E080830E94DC
S1132A10530381E0809339240E94BD080C947D20E7
S1132A20CE2CD12CF601E65CFB4D8081813029F05F
S1132A30823009F4C4C00C947D208DE18C9DF0019A
S1132A408D9DF00D1124E156F04D848D882359F1AC
S1132A50F601E35BFB4D808181628F7E8083012BD5
S1132A6051F461E08E2D0E941006F601EF5BF64DE5
S1132A7081E0808313C08DE18C9DF0018D9DF00D6C
S1132A801124E156F04D8185811108C060E08E2D3E
S1132A900E941006F601EF5BF64D108281E08093F0
S1132AA039240C947D20012B11F00C947D20F60127
S1132AB0E35BFB4D808185FF27C08F018E7D808382
S1132AC08E2D0E94BA06F801808180618083F60110
S1132AD0EE0FFF1FEE0FFF1FEE0FFF1FE854F74D21
S1132AE08181882364F48E2D0E94BA060E94050415
S1132AF00E9459038E2D0E94A8020E94AC0481E01A
S1132B00809339240C947D20F601E35BFB4D8062B5
S1132B1080838E2D0E94BA06F601EE0FFF1FEE0F82
S1132B20FF1FEE0FFF1FE854F74D818188230CF03F
S1132B3041C08601035B1B4DF80180818160808365
S1132B408E2D0E94BA06F8018081837F8083909144
S1132B503B299923D9F0F601EE0FFF1FEE0FFF1F5B
S1132B60EE0FFF1FE854F74D918199237CF485FD06
S1132B700AC00CC0E82FF0E0E35BFB4D9081937F2B
S1132B8090838F5F01C080E08031A0F30E94BD0874
S1132B908E2D0E94A8020E94AC040E9405040E948B
S1132BA059038E2D0E94BA06F601E35BFB4D80812A
S1132BB08F7E808381E0809339240C947D20012BC7
S1132BC011F00C947D208E2D0E944C03182FF601D9
S1132BD0E35BFB4D808185FF86C08E2D0E944C03F4
S1132BE0182F843050F5A0914C24E1E0EA0FB0E0B6
S1132BF0AE58BA4D82EC8C93A1E0AE0FF0E0EE58E3
S1132C00FA4D1083E1E0EA0FB0E0AE58BA4D1C92E1
S1132C10A1E0AE0FF0E0EE58FA4D83EC8083E1E0E2
S1132C20EA0FB0E0AE58BA4D1C9381E08E0F80934A
S1132C304C24F0E0EE58FA4D1082F601E35BFB4DB4
S1132C4080818F7D8061827F8083F601E15AFB4D14
S1132C508AE08083E0914C24A1E0AE0FF0E0EE58CE
S1132C60FA4D83E88083E1E0EA0FB0E0AE58BA4D54
S1132C70EC9281E08E0F80934C24F0E0EE58FA4DF4
S1132C8081E080830E94BD08F601EE0FFF1FEE0F66
S1132C90FF1FEE0FFF1FE854F74D818188232CF4AA
S1132CA08E2D0E94A8020E94AC041430B8F4E09166
S1132CB04C24A1E0AE0FF0E0EE58FA4D80EC808396
S1132CC0E1E0EA0FB0E0AE58BA4D1C9381E08E0FFC
S1132CD080934C24F0E0EE58FA4D108281E080930A
S1132CE039240C947D20F601E35BFB4D83628083E1
S1132CF0E0914C24A1E0AE0FF0E0EE58FA4D82E8EA
S1132D008083E1E0EA0FB0E0AE58BA4DEC9281E086
S1132D108E0F80934C24F0E0EE58FA4D81E08083CE
S1132D20F601EE0FFF1FEE0FFF1FEE0FFF1FE8541B
S1132D30F74D818188230CF069C08E2D0E944C03CD
S1132D408430B8F4E0914C24A1E0AE0FF0E0EE58EA
S1132D50FA4D92EC9083E1E0EA0FB0E0AE58BA4D40
S1132D608C9381E08E0F80934C24F0E0EE58FA4D62
S1132D701082F601E35BFB4D8081837F80839AE0C0
S1132D80F601E25CF44D908390913B299923B9F1CB
S1132D90F601EE0FFF1FEE0FFF1FEE0FFF1FE854AB
S1132DA0F74D918199235CF585FD26C028C0802FBD
S1132DB00E944C038430B8F4E0914C24A1E0AE0F9F
S1132DC0F0E0EE58FA4D92EC9083E1E0EA0FB0E0C7
S1132DD0AE58BA4D8C9381E08E0F80934C24F0E072
S1132DE0EE58FA4D1082E02FF0E0E35BFB4D80815A
S1132DF0837F80830F5F01C000E00031C0F20E9436
S1132E00BD088E2D0E94A8020E94AC041430C0F4A8
S1132E10E0914C24A1E0AE0FF0E0EE58FA4D80ECC6
S1132E208083E1E0EA0FB0E0AE58BA4D1C9381E034
S1132E308E0F80934C24F0E0EE58FA4D81E08083AD
S1132E4081E0809339240C947D208E2D0E94BA0653
S1132E50EAE9F1E313821282118210828E2D0E941C
S1132E60A8020E9405040E9459030E94AC040C9419
S1132E707D20CE2CD12CF601E65CFB4D8081813087
S1132E8021F0823061F10C947D20F601EE0FFF1FDA
S1132E90EE0FFF1FEE0FFF1FE854F74D87818823C5
S1132EA054F0EDE4F4E28089877F808B0E94530321
S1132EB081E0809339248E2D0E94BA06EAE9F1E379
S1132EC013821282118210828E2D0E94A8020E9407
S1132ED005040E9459030E94AC040C947D208E2D9D
S1132EE00E944C03012B09F5F601E35BFB4D908135
S1132EF0996090838430E8F5E0914C24A1E0AE0F12
S1132F00F0E0EE58FA4D91EC9083E1E0EA0FB0E086
S1132F10AE58BA4D8C9381E08E0F80934C24F0E030
S1132F20EE58FA4D81E0808324C0F601E35BFB4D4B
S1132F30908191FD05C0F601E35BFB4D967F908384
S1132F408430B8F4E0914C24A1E0AE0FF0E0EE58E8
S1132F50FA4D91EC9083E1E0EA0FB0E0AE58BA4D3F
S1132F608C9381E08E0F80934C24F0E0EE58FA4D60
S1132F70108281E0809339240C947D206FE270E20A
S1132F8080E090E00E948E23012B11F00C947D20B0
S1132F908091ED22882309F4A2C08130F1F419C094
S1132FA0842F90E0FDE16F9F90011124F901E1531A
S1132FB0F24DE80FF91F50812156304DF901E80F09
S1132FC0F91F50834F5F01C040E04D3148F36F5FFC
S1132FD001C060E06031C0F312C0823081F40CC0E3
S1132FE0822F90E0FC01E653F24D3081FC01E55C58
S1132FF0F64D30832F5F01C020E0253088F3109216
S1133000ED2210924B2461E570E280E090E00E9492
S11330108E2364E670E281E090E00E948E236FE2EA
S113302070E280E090E00E948E2360914B2431E1B5
S1133030639FB001112460517C4D81E090E00E94B7
S11330408E23EAE9F1E323818DEC289F912D11244D
S113305096959695969530E3390F3983990F392FC4
S1133060330F330F930F291B205D2A834AE34B83CD
S11330702281289F912D112496959695969530E35B
S1133080390F3C83990F392F330F330F930F291BBB
S1133090205D2D834E839181989F812D11248695E7
S11330A08695869520E3280F2F83880F282F220FDB
S11330B0220F820F981B905D9887198665E770E24E
S11330C080E090E00E948E23BE016F5F7F4F81E01D
S11330D090E00E948E230E94A2070C947D20809190
S11330E04B24811108C0EAE9F1E3138212821182B0
S11330F010820C947D200E9435226FE270E280E001
S113310090E00E948E2361E570E280E090E00E94EE
S11331108E2364E670E281E090E00E948E236FE2E9
S113312070E280E090E00E948E2360914B2451E194
S1133130659FB001112460517C4D81E090E00E94B4
S11331408E23EAE9F1E323818DEC289F912D11244C
S113315096959695969530E3390F3983990F392FC3
S1133160330F330F930F291B205D2A834AE34B83CC
S11331702281289F912D112496959695969530E35A
S1133180390F3C83990F392F330F330F930F291BBA
S1133190205D2D834E839181989F812D11248695E6
S11331A08695869520E3280F2F83880F282F220FDA
S11331B0220F820F981B905D9887198665E770E24D
S11331C080E090E00E948E23BE016F5F7F4F81E01C
S11331D090E00E948E230E94A2078FC7012B09F062
S11331E08CC78091ED22882321F0833009F4B7C085
S11331F0CFC280914B24813059F138F0823009F4E8
S11332005EC0833009F491C078C7EAE9F1E3138220
S113321012821182108281E080939F316EC7842FC5
S113322090E0EDE16E9F90011124F901E156F04D1B
S1133230E80FF91F50812153324DF901E80FF91FAE
S113324050834F5F01C040E04D3148F36F5F01C0D0
S113325060E06031C0F381E08093ED2210924B2452
S113326061E570E280E090E00E948E2360914B243F
S1133270F1E16F9FB00111246F5A764D81E090E027
S11332800E948E236FE270E280E090E00E948E2321
S113329067E770E281E090E00E948E2380914B24E6
S11332A00E9429032AC7822F90E0FC01E55CF64DB9
S11332B03081FC01E653F24D30832F5F01C020E0E2
S11332C0253088F382E08093ED2210924B2461E54F
S11332D070E280E090E00E948E2360914B2431E103
S11332E0639FB00111246E58794D81E090E00E94F3
S11332F08E236FE270E280E090E00E948E23E091E2
S11333004B24F0E0E55CF64D8081882339F068E8D1
S113331070E281E090E00E948E23EFC669E970E2DA
S113332081E090E00E948E23E8C683E08093ED2242
S113333010924B2461E570E280E090E00E948E23BD
S113334060914B2451E1659FB0011124625B744D7F
S113335081E090E00E948E230E94EB25CEC68091EE
S11333604B24833009F4A8C0843009F472C181303D
S113337009F0A1C120E14AE354E260E070E080E793
S11333800E94A2206894EE24E4F8F12C10E00FC00F
S11333908DE1189FA00111244156504D2DE1B70134
S11333A080E70E94A2209DE1E90EF11C1F5F10310D
S11333B078F325E04BE359E2B70180E70E94A220AD
S11333C040E050C0242F30E0F901E65CFB4D8081E1
S11333D08150823060F5A0914C24E1E0EA0FB0E026
S11333E0AE58BA4D83E98C9381E08E0F80934C24C0
S11333F0F0E0EE58FA4D408380E017C0E0914C2491
S113340091E09E0F90934C24F0E09DE1929FD001B7
S1133410939FB00D1124A156B04DA80FB11D9C91DE
S1133420EE58FA4D9F7790838F5F8D3138F38091FA
S11334304C24E09140298E1781F080913424882314
S113344061F081E08E0F80934029F0E0EE58FA4D50
S113345080818093A00A109234248091342488239C
S1133460E1F34F5F403108F4ADCFA0914C24E1E08B
S1133470EA0FB0E0AE58BA4D84E98C9381E08E0F28
S113348080934C24F0E0EE58FA4D108280E011C095
S1133490E0914C2491E09E0F90934C24F0E0A82FEF
S11334A0B0E0A55CB64D9C91EE58FA4D9F779083A1
S11334B08F5F853068F3FFC020E1AE014F5F5F4F3F
S11334C060E070E080E50E94A22040E020E010C0AF
S11334D0822F90E0FC01E65CFB4D3081E1E0F0E0FE
S11334E0EC0FFD1FE80FF91F8081381341E02F5FB7
S11334F0203170F3442389F09BC0EDE11E9FA001AD
S113350011244156504D2DE1B70180E50E94A220BF
S1133510FDE1EF0EF11C1F5F05C06894EE24E4F892
S1133520F12C10E0103148F325E04BE359E2B701E8
S113353080E50E94A22030E051C0432F50E0FA0100
S1133540E65CFB4D80818150823068F5A0914C246B
S1133550E1E0EA0FB0E0AE58BA4D83E98C9381E024
S11335608E0F80934C24F0E0EE58FA4D308390E0B7
S113357018C08DE1849FF001859FF00D1124E15660
S1133580F04DE90FF11D808181708083E0914C241E
S113359021E02E0F20934C24F0E0EE58FA4D808366
S11335A09F5F9D3130F380914C24E09140298E1728
S11335B081F080913424882361F081E08E0F809320
S11335C04029F0E0EE58FA4D80818093A00A1092D1
S11335D03424809134248823E1F33F5F303108F4AC
S11335E0ACCFA0914C24E1E0EA0FB0E0AE58BA4D64
S11335F084E98C9381E08E0F80934C24F0E0EE58A4
S1133600FA4D108280E011C0E0914C2491E09E0FAD
S113361090934C24F0E0A82FB0E0A55CB64D9C91AB
S1133620EE58FA4D9F7790838F5F853068F343C0DF
S11336306FE270E280E090E00E948E236AEA70E21A
S113364081E090E00E948E2384E690E00E94110EB7
S113365032C061E570E280E090E00E948E236BEB63
S113366070E281E090E00E948E2320E14AE354E27C
S113367060E070E080E50E9483216894EE24E4F821
S1133680F12C10E00FC03DE1139FA001112441561D
S1133690504D2DE1B70180E50E9483215DE1E50EE7
S11336A0F11C1F5F103178F325E04BE359E2B701B9
S11336B080E50E9483211092ED2210924B2461E553
S11336C070E280E090E00E948E2364E670E281E084
S11336D090E00E948E236FE270E280E090E00E940E
S11336E08E2360914B2481E1689FB00111246051C5
S11336F07C4D81E090E00E948E23EAE9F1E323818E
S11337008DEC289F912D112496959695969530E3EE
S1133710390F3983990F392F330F330F930F291B27
S1133720205D2A834AE34B832281289F912D112413
S113373096959695969530E3390F3C83990F392FDA
S1133740330F330F930F291B205D2D834E839181FB
S1133750989F812D112486958695869520E3280FC0
S11337602F83880F282F220F220F820F981B905D22
S11337709887198665E770E280E090E00E948E23C6
S1133780BE016F5F7F4F81E090E00E948E23B5C43D
S11337901092ED2210924B2461E570E280E090E0FB
S11337A00E948E2364E670E281E090E00E948E2302
S11337B06FE270E280E090E00E948E2360914B24DF
S11337C091E1699FB001112460517C4D81E090E04A
S11337D00E948E23EAE9F1E323818DEC289F912D49
S11337E0112496959695969530E3390F3983990F60
S11337F0392F330F330F930F291B205D2A834AE39C
S11338004B832281289F912D112496959695969508
S113381030E3390F3C83990F392F330F330F930F54
S1133820291B205D2D834E839181989F812D112426
S113383086958695869520E3280F2F83880F282F59
S1133840220F220F820F981B905D9887198665E7D7
S113385070E280E090E00E948E23BE016F5F7F4F94
S113386081E090E00E948E230E94A20746C4012BAF
S113387009F043C48091ED22823009F03EC4809166
S11338803F29882309F439C4E0914B24F0E0E55C36
S1133890F64D81E080836FE270E280E090E00E9468
S11338A08E2368E870E281E090E00E948E23A0916C
S11338B04C24E1E0EA0FB0E0AE58BA4D84E98C93B1
S11338C081E08E0F80934C24F0E0EE58FA4D108284
S11338D080E011C0E0914C2491E09E0F90934C2421
S11338E0F0E0A82FB0E0A55CB64D9C91EE58FA4DDF
S11338F09F7790838F5F853068F3FFC3012B09F0B6
S1133900FCC380914B24815080934B249091ED22F1
S1133910913001F138F0923009F444C0933009F445
S113392074C0EBC3843018F083E080934B246FE2BF
S113393070E280E090E00E948E2360914B24E1E1EC
S11339406E9FB001112460517C4D81E090E00E9493
S11339508E23D3C38D3118F08CE180934B2461E521
S113396070E280E090E00E948E2360914B24F1E1AC
S11339706F9FB00111246F5A764D81E090E00E9450
S11339808E236FE270E280E090E00E948E2367E76E
S113399070E281E090E00E948E2380914B240E948B
S11339A02903ABC3843018F083E080934B2461E592
S11339B070E280E090E00E948E2360914B2431E11C
S11339C0639FB00111246E58794D81E090E00E940C
S11339D08E236FE270E280E090E00E948E23E091FB
S11339E04B24F0E0E55CF64D8081882339F068E8EB
S11339F070E281E090E00E948E237FC369E970E267
S1133A0081E090E00E948E2378C3863018F085E030
S1133A1080934B2480913724811107C080914B24DB
S1133A20843019F482E080934B2461E570E280E0F5
S1133A3090E00E948E2360914B2451E1659FB00178
S1133A401124625B744D81E090E00E948E2380918A
S1133A504B24882319F0853021F010C00E94EB25F7
S1133A604CC36FE270E280E090E00E948E2360E03D
S1133A7070E281E090E00E948E233FC36FE270E227
S1133A8080E090E00E948E2365EC70E281E090E09B
S1133A900E948E2332C3012B09F02FC380914B2443
S1133AA08F5F80934B249091ED229130F9F038F0A0
S1133AB0923009F442C0933009F471C01EC38430BB
S1133AC010F010924B246FE270E280E090E00E94CC
S1133AD08E2360914B2481E1689FB00111246051D1
S1133AE07C4D81E090E00E948E2307C38D3110F05D
S1133AF010924B2461E570E280E090E00E948E23F6
S1133B0060914B2491E1699FB00111246F5A764D65
S1133B1081E090E00E948E236FE270E280E090E00A
S1133B200E948E2367E770E281E090E00E948E237A
S1133B3080914B240E942903E0C2843010F010923B
S1133B404B2461E570E280E090E00E948E23609156
S1133B504B24E1E16E9FB00111246E58794D81E050
S1133B6090E00E948E236FE270E280E090E00E9479
S1133B708E23E0914B24F0E0E55CF64D80818823B0
S1133B8039F068E870E281E090E00E948E23B5C2CB
S1133B9069E970E281E090E00E948E23AEC2863033
S1133BA010F010924B2480913724811107C080912A
S1133BB04B24833019F485E080934B2461E570E253
S1133BC080E090E00E948E2360914B24F1E16F9F8E
S1133BD0B0011124625B744D81E090E00E948E2359
S1133BE080914B24882319F0853021F010C00E9465
S1133BF0EB2583C26FE270E280E090E00E948E23A6
S1133C0060E070E281E090E00E948E2376C26FE271
S1133C1070E280E090E00E948E2365EC70E281E027
S1133C2090E00E948E2369C2012B09F066C2809144
S1133C30ED22823009F061C280913F29882309F482
S1133C405CC2E0914B24F0E0E55CF64D10826FE23B
S1133C5070E280E090E00E948E2369E970E281E0E6
S1133C6090E00E948E2380914B24823018F08230A1
S1133C7021F033C00E94BD0830C0EDE4F4E2808935
S1133C80877F808B4E2D50E0FA01EE0FFF1FEE0F61
S1133C90FF1FEE0FFF1FE854F74D97819923C4F4DB
S1133CA09DE1949FF001959FF00D1124E156F04D94
S1133CB09685992369F0FA01E35BFB4D908194FFAB
S1133CC007C090913D29992319F0886080935D2461
S1133CD00E94530381E080933924A0914C24E1E0B5
S1133CE0EA0FB0E0AE58BA4D84E98C9381E08E0FB0
S1133CF080934C24F0E0EE58FA4D108280E011C01D
S1133D00E0914C2491E09E0F90934C24F0E0A82F76
S1133D10B0E0A55CB64D9C91EE58FA4D9F77908328
S1133D208F5F853068F3E9C1812F90E0FC01E35B8C
S1133D30FB4D2081237F2083FC01E65CFB4D8081C9
S1133D408230E1F4812F0E944C038430B8F4E09176
S1133D504C24A1E0AE0FF0E0EE58FA4D92EC9083C3
S1133D60E1E0EA0FB0E0AE58BA4D8C9381E08E0FDB
S1133D7080934C24F0E0EE58FA4D10821F5F01C08E
S1133D8010E0103188F20E94BD080E9405040E94D0
S1133D905903812F0E94BA0681E080933924ADC172
S1133DA0012B09F08DC0EDE4F4E280898F7B808BD8
S1133DB00E94A20785E090E00E94110E85E090E049
S1133DC00E94110E81E08093372460E070E080E56A
S1133DD00E94A12080913724882309F46DC083E0D8
S1133DE08093ED2280934B2461E570E280E090E0C3
S1133DF00E948E2360914B2431E1639FB001112412
S1133E00625B744D81E090E00E948E236FE270E269
S1133E1080E090E00E948E2365EC70E281E090E007
S1133E200E948E23E0914C24A1E0AE0FF0E0EE5806
S1133E30FA4D88E98083E1E0EA0FB0E0AE58BA4D6C
S1133E401C9281E08E0F80934C24F0E0EE58FA4DE2
S1133E5081E0808380913F298093B72821E04FE35C
S1133E6059E264EE71E080E50E94A220A0914C2406
S1133E70E1E0EA0FB0E0AE58BA4D84E98C9381E0FA
S1133E808E0F80934C24F0E0EE58FA4D108280E0BF
S1133E9011C0E0914C2491E09E0F90934C24F0E0EB
S1133EA0A82FB0E0A55CB64D9C91EE58FA4D9F77D3
S1133EB090838F5F853068F381E0809339241DC13E
S1133EC010923724E0914C24A1E0AE0FF0E0EE58BC
S1133ED0FA4D88E98083E1E0EA0FB0E0AE58BA4DCC
S1133EE01C92A1E0AE0FF0E0EE58FA4D10828091E2
S1133EF0B72880933F29E1E0EA0FB0E0AE58BA4D0D
S1133F0084E98C9381E08E0F80934C24F0E0EE588A
S1133F10FA4D108280E011C0E0914C2491E09E0F94
S1133F2090934C24F0E0A82FB0E0A55CB64D9C9192
S1133F30EE58FA4D9F7790838F5F853068F3EDE4F8
S1133F40F4E280898064808B81E0809339248091BD
S1133F50ED22833009F0D1C080914B24835082300C
S1133F6008F0CBC01092ED2210924B2461E570E270
S1133F7080E090E00E948E2364E670E281E090E0AD
S1133F800E948E236FE270E280E090E00E948E2314
S1133F9060914B2451E1659FB001112460517C4D27
S1133FA081E090E00E948E23EAE9F1E323818DEC25
S1133FB0289F912D112496959695969530E3390F67
S1133FC03983990F392F330F330F930F291B922FF6
S1133FD0905D9A834AE34B832281289F912D11247B
S1133FE096959695969530E3390F3C83990F392F22
S1133FF0330F330F930F291B922F905D9D834E83B4
S11340009181989F812D112486958695869520E32C
S1134010280F2F83880F282F220F220F820F981B1F
S1134020892F805D8887198665E770E280E090E0DB
S11340300E948E23BE016F5F7F4F81E090E00E945B
S11340408E235BC08E2D0E944C034E2D50E0FA014E
S1134050E35BFB4D908195FF50C0012B39F5FA01CC
S1134060E35BFB4D90619083FA01E25CF44D1082B6
S11340708430C0F4E0914C24A1E0AE0FF0E0EE589F
S1134080FA4D93EC9083E1E0EA0FB0E0AE58BA4DFC
S11340908C9381E08E0F80934C24F0E0EE58FA4D1F
S11340A081E0808381E08093392427C0FA01E25CB7
S11340B0F44D2081211121C0FA01E35BFB4D9F7E69
S11340C090838430B8F4E0914C24A1E0AE0FF0E08A
S11340D0EE58FA4D93EC9083E1E0EA0FB0E0AE586D
S11340E0BA4D8C9381E08E0F80934C24F0E0EE580F
S11340F0FA4D108281E0809339246196CDBFDEBFF2
S1134100DF91CF911F910F91FF90EF90DF90CF90AF
S1134110BF90AF909F908F90089584E18093A50401
S11341201092A004E1EAF4E08081886F8083109209
S1134130A2041092A304E4EAF4E080818D6C8083ED
S1134140089508952C5F30E06DC0311123C0FB0148
S1134150EE0FEF2FEE1FFF0BF195EE701092083863
S11341601092093805C00196809308389093093855
S113417080910838909109388C389105A0F38E2FDE
S1134180806E8093A6048091A7328130E1F710926B
S1134190A7323F5F3130D1F46093A7048091A732F6
S11341A08130E1F71092A7323F5F109208381092E5
S11341B0093805C001968093083890930938809196
S11341C00838909109388C389105A0F33230C9F43D
S11341D08E2F816E8093A60480910A388130E1F796
S11341E010920A38A32FB0E0A356BB4C3C933F5F18
S11341F082E08093A30480910A388130E1F7109221
S11342000A38333078F082E08093A30480910A382E
S11342108130E1F710920A38A32FB0E0A356BB4CCB
S11342203C933F5F321708F490CF87E08093A30458
S1134230109208381092093805C001968093083806
S1134240909309388091083890910938843823E094
S1134250920798F380E090E009C0FA01E80FF91F93
S1134260DC01A156BB4C2C91208301968D31910524
S1134270A4F30895DC014E5F20E02DC0211111C08C
S1134280FD01EE0FEF2FEE1FFF0BF195EE70E06EC8
S1134290E093A6049091A7329130E1F71092A732EF
S11342A02F5F213049F4A093A7049091A732913055
S11342B0E1F71092A7322F5F223068F0FB01E20F82
S11342C0F11D80818093A7049091A7329130E1F78A
S11342D01092A7322F5F241788F283E08093A304FF
S11342E0109208381092093805C001968093083856
S11342F090930938809108389091093880342FE1DF
S1134300920798F30895FF920F931F93CF93DF932F
S1134310CDB7DEB7A097CDBFDEBF8B01F22E80E113
S1134320821770F022E030E03FC0E1E0F0E0EC0FF3
S1134330FD1FE20FF31F86E080832F5F3F4F02C013
S113434022E030E02231310584F343EF4F0DBE010A
S11343506F5F7F4FC8010E943A21005F1F4F2FE01B
S113436030E00CC0F9013D9781E090E08C0F9D1F77
S1134370E80FF91F97E090832F5F3F4F2C313105F1
S11343808CF340EF4F0DBE016F5F7F4FC8010E9459
S11343903A2114C0E1E0F0E0EC0FFD1FE20FF31F3F
S11343A095E090832F5F3F4F2C3131059CF34F2DC7
S11343B0BE016F5F7F4FC8010E943A21A096CDBF16
S11343C0DEBFDF91CF911F910F91FF9008951F924F
S11343D00F920FB60F92112408B60F9218BE0BB6A7
S11343E00F921BBE8F93EF93FF938091A40483FFDE
S11343F003C083E08093A3048091A40482FD04C0DD
S11344008091A40484FF03C083E08093A30480917B
S1134410A40486FF0DC08091A40484FD0BC081E038
S11344208093A732E7E0F6E080818068808302C051
S11344301092A7328091A40488234CF481E08093E5
S11344400A38E7E0F6E080818068808302C0109239
S11344500A38FF91EF918F910F900BBE0F9008BE19
S11344600F900FBE0F901F901895CF93DF9380EAA3
S11344708A95F1F7E6E0F6E080E2808320E4208389
S113448098E0908330E1308364E06083A5E0B6E097
S113449052E05C9341E04C938C938083CFEBD3E068
S11344A02197F1F700C0000020839083308360835C
S11344B05C934C938C93CFE3D1E02197F1F700C048
S11344C00000808320839083308360835C934C93CB
S11344D08C93CFE3D1E02197F1F700C000008083F3
S11344E0CFE3D1E02197F1F700C00000208390834F
S11344F0308360835C9340838C93CFE3D1E0219736
S1134500F1F700C0000080832083908330836083B0
S11345105C9340838C93CFE3D1E02197F1F700C003
S113452000008083208390833C9360835083408386
S11345308C93CFE3D1E02197F1F700C00000808392
S11345403C9320839C938C93CFE3D1E02197F1F7A4
S113455000C0000080838C938FE00CC080E28093C5
S11345600606EFE3F1E03197F1F700C00000809315
S11345700506892F9FEF980F8111F0CFE6E0F6E052
S113458080E2808320E4208398E0908330E13083CC
S113459064E0608352E0508341E04083A5E0B6E0EC
S11345A08C93CFE3D1E02197F1F700C00000808322
S11345B0208390833C936C93508340838C93CFE30C
S11345C0D1E02197F1F700C0000080833C93208361
S11345D09C938C93CFE3D1E02197F1F700C00000C6
S11345E080838C938FE00CC080E280930606EFE317
S11345F0F1E03197F1F700C0000080930506892FA0
S11346009FEF980F8111F0CFE6E0F6E080E280831F
S113461020E4208398E0908330E1308364E0608379
S113462052E0508341E04083A5E0B6E08C93CFE3B1
S1134630D1E02197F1F700C00000808320839083AC
S11346403083608350834C938C93CFE3D1E02197E4
S1134650F1F700C0000080833C9320839C938C93EB
S1134660CFE3D1E02197F1F700C0000080838C9361
S11346708FE00CC080E280930606EFE3F1E031970F
S1134680F1F700C0000080930506892F9FEF980F73
S11346908111F0CFE6E0F6E080E2808320E420831D
S11346A098E0908330E1308364E0608352E050838B
S11346B041E04083A5E0B6E08C93CFE3D1E02197BD
S11346C0F1F700C0000080832083908330836C93D3
S11346D05C9340838C93CFE3D1E02197F1F700C042
S11346E0000080833C9320839C938C938FE00CC0C8
S11346F080E280930606EFE3F1E03197F1F700C022
S1134700000080930506892F9FEF980F8111F0CF49
S113471080E280930606DF91CF910895CF93DF93D3
S1134720AC0120E089C0C6E0D6E080E48883A5E03F
S1134730B6E088E08C9390E29C9398839C9390815C
S113474094FF04C081E08093050603C081E0809358
S1134750060695FF04C082E08093050603C082E04C
S11347608093060696FF04C084E08093050603C088
S113477084E080930606992324F480E1809305065F
S113478003C080E1809306068FE391E00197F1F77F
S113479000C000004115510521F480E48093060611
S11347A006C04130510519F480E480930506A6E063
S11347B0B6E088E08C9390E290930506CFE3D1E0D5
S11347C02197F1F700C000009C93908190FF04C0F2
S11347D081E08093050603C081E08093060691FF83
S11347E004C082E08093050603C082E0809306063D
S11347F092FF04C084E08093050603C084E08093A4
S1134800060693FF04C080E18093050603C080E19F
S113481080930606EFE3F1E03197F1F700C0000062
S113482090E290930506CFE3D1E02197F1F700C021
S11348300000909306062F5FFB01E20FF11D8081BB
S1134840811171CFDF91CF910895E6E2F6E084E023
S1134850808392E0908391E09093460698E0908361
S1134860809345061092B62603C08F5F8093B626C8
S11348708091B6268233C8F320E04BC08091E807CC
S11348808370422F50E090E0022E02C095958795E8
S11348900A94E2F7BC016170772780FD1EC0FA011B
S11348A0E158FE4C80818823C4F08150FA01E1581C
S11348B0FE4C8083882364F5E091382981E08E0FD3
S11348C080933829F0E0EE0FFF1FE954F94D822F51
S11348D0806890E0808391831BC0672BC9F0FA0144
S11348E0E158FE4C808188239CF4FA01E158FE4C87
S11348F081E08083E09138298E0F80933829F0E09D
S113490040685160EE0FFF1FE954F94D4083518315
S11349102F5F283008F4B2CF0895CF93DF9381300E
S113492021F498E09093250603C098E0909326061E
S113493094E09093460650E036C150FF04C094E0E2
S11349409093250603C094E09093260651FF04C07B
S113495092E09093250603C092E09093260652FFBE
S113496004C091E09093450603C091E090934606FD
S11349701092B62603C09F5F9093B6269091B626F8
S11349809233C8F39091E80791FF06C090910B38D9
S1134990916090930B3805C090910B389E7F909353
S11349A00B389091E80790FF06C090910B38926005
S11349B090930B3805C090910B389D7F90930B38E2
S11349C09091680693FF06C090910B389460909381
S11349D00B3805C090910B389B7F90930B389091C6
S11349E0680692FF06C090910B38986090930B383C
S11349F005C090910B38977F90930B38909168067F
S1134A00992334F490910B38906190930B3805C03E
S1134A1090910B389F7E90930B389091680696FF87
S1134A2006C090910B38906290930B3805C090911A
S1134A300B389F7D90930B389091680695FF06C0C4
S1134A4090910B38906490930B3805C090910B387B
S1134A509F7B90930B389091680694FF06C09091C9
S1134A600B38906890930B3805C090910B389F7762
S1134A7090930B381092B62603C09F5F9093B6268E
S1134A809091B6269233C8F3642F70E020910B38CE
S1134A9030E0042E02C0359527950A94E2F7E90127
S1134AA0C170DD2720FD40C0282F30E0220F331FC6
S1134AB0220F331F220F331F260F371FA52FB0E0FD
S1134AC0F901EE0FFF1FEE0FFF1FEE0FFF1FE8545B
S1134AD0F74DEA0FFB1F9081992334F19150F901AE
S1134AE0EE0FFF1FEE0FFF1FEE0FFF1FE854F74DF1
S1134AF0EA0FFB1F908399230CF04EC0E0913829F4
S1134B0091E09E0F90933829F0E0220F331F220F7B
S1134B10331F220F331FA22BB32BEE0FFF1FE954B9
S1134B20F94DA083B18338C0CD2BB1F1282F30E0EB
S1134B30220F331F220F331F220F331F260F371F5D
S1134B40652F70E0F901EE0FFF1FEE0FFF1FEE0F50
S1134B50FF1FE854F74DE60FF71F90819923E4F403
S1134B60220F331F220F331F220F331FF901E85482
S1134B70F74DE60FF71F91E09083E09138299E0FDF
S1134B8090933829F0E03160262B372BEE0FFF1F6E
S1134B90E954F94D208331834F5F01C040E0483030
S1134BA008F4CBCE5F5F5830C8F3DF91CF910895FE
S1134BB00E9425241092B62603C08F5F8093B626E8
S1134BC08091B6268233C8F380E00E948D2481E070
S1134BD00E948D240895CF93DF93CDB7DEB76197FC
S1134BE0CDBFDEBF83E5898384E78A838DE48B832D
S1134BF08FE68C8384E68D838AE38E8320916F24F1
S1134C002A3058F08DEC289F812D112486958695A5
S1134C108695805D8F8387E001C086E0E1E0F0E067
S1134C20EC0FFD1FE80FF11D9DEC299F912D112420
S1134C30969596959695990F392F330F330F930FB9
S1134C40291B205D208391E0980FE1E0F0E0EC0F58
S1134C50FD1FE90FF11D90E2908392E0980FE1E0CF
S1134C60F0E0EC0FFD1FE90FF11D94E5908393E054
S1134C70980FE1E0F0E0EC0FFD1FE90FF11D95E660
S1134C80908394E0980FE1E0F0E0EC0FFD1FE90F52
S1134C90F11D9CE6908395E0980FE1E0F0E0EC0FC5
S1134CA0FD1FE90FF11D93E6908396E0980FE1E074
S1134CB0F0E0EC0FFD1FE90FF11D9FE6908328E063
S1134CC0280F97E0980FE1E0F0E0EC0FFD1FE90FEB
S1134CD0F11D9AE39083909170249A3088F0E1E07A
S1134CE0F0E0EC0FFD1FE20FF11D2DEC929F212D42
S1134CF01124269526952695205D208329E0280FEA
S1134D0031E0320FE1E0F0E0EC0FFD1FE20FF11DA6
S1134D108DEC989F812D1124869586958695880F14
S1134D20282F220F220F820F981B905D9083E1E0C1
S1134D30F0E0EC0FFD1FE30FF11D10826FE270E253
S1134D4080E090E00E948E23BE016F5F7F4F81E080
S1134D5090E00E948E236196CDBFDEBFDF91CF919C
S1134D6008950F931F93CF93DF93E091EE22C1E058
S1134D70CE0FF0E0E051FD4DE081A1E0AC0FD0E0BA
S1134D80C051DD4D288181E08A0F8093EE22B0E08E
S1134D90A051BD4DCC918E2F90E0FC01E058F1095B
S1134DA0E137F10508F0F7C18827E954FE4F8F4F2A
S1134DB00C948F29E091382981E08E0F8093382953
S1134DC0F0E030E0220F331F220F331F220F331F76
S1134DD02360EE0FFF1FE954F94D20833183DBC1BB
S1134DE0E091382981E08E0F80933829F0E030E09B
S1134DF0220F331F220F331F220F331F2260EE0FA7
S1134E00FF1FE954F94D20833183C5C181E08093AC
S1134E109F31C1C110929F31BEC1EAE9F1E313820F
S1134E20128211821082B7C1422F50E08DE1849F1B
S1134E30F001859FF00D1124E156F04DC08381E00F
S1134E4016C0E091EE2291E09E0F9093EE22F0E0E6
S1134E50E051FD4D90813DE1349FF001359FF00D0F
S1134E601124E156F04DE80FF11D90838F5F8D31D1
S1134E7040F391C1C0933B2981E011C0282F30E059
S1134E80E091EE2291E09E0F9093EE22F0E0E0514B
S1134E90FD4D9081F901E55CF64D90838F5F85307F
S1134EA068F379C1A0914C24E1E0EA0FB0E0AE5878
S1134EB0BA4D8AE98C9381E08E0F80934C24F0E004
S1134EC0EE58FA4D108280E011C0E0914C2491E03C
S1134ED09E0F90934C24F0E0A82FB0E0A050B04E69
S1134EE09C91EE58FA4D9F7790838F5F8E3168F3D3
S1134EF052C1A0914C24E1E0EA0FB0E0AE58BA4DA3
S1134F0083E98C9381E08E0F80934C24F0E0EE587B
S1134F10FA4D208380E015C0E0914C2491E09E0F6F
S1134F2090934C24F0E09DE1299FD0011124A156D7
S1134F30B04DA80FB11D9C91EE58FA4D9F77908308
S1134F408F5F8D3148F327C1A0914C24E1E0EA0F33
S1134F50B0E0AE58BA4D84E98C9381E08E0F809313
S1134F604C24F0E0EE58FA4D108280E011C0E0913C
S1134F704C2491E09E0F90934C24F0E0A82FB0E0D5
S1134F80A55CB64D9C91EE58FA4D9F7790838F5F48
S1134F90853068F300C1A0914C24E1E0EA0FB0E051
S1134FA0AE58BA4D85E98C9381E08E0F80934C24E2
S1134FB0F0E0EE58FA4D108280E011C0E0914C24EC
S1134FC091E09E0F90934C24F0E0A82FB0E0A65CF3
S1134FD0BB4D9C91EE58FA4D9F7790838F5F803143
S1134FE068F3D9C020E130E04AE354E260E070E0C5
S1134FF080E790E00E94832100E110E0C0E010C04F
S11350008DE1C89FA00111244156504D2DE130E09F
S1135010B80180E790E00E948321035E1F4FCF5FB9
S1135020C03170F325E030E04BE359E2B80180E78A
S113503090E00E948321AFC020E130E04AE354E2D3
S113504060E070E080E790E00E94A220C0E0D0E041
S113505000E110E012C08DE18C9FA0018D9F500DE6
S113506011244156504D2DE130E0B80180E790E025
S11350700E94A220035E1F4F2196C031D10558F330
S113508025E030E04BE359E2B80180E790E00E946C
S1135090A22081C0CC2309F47EC0822F0E94B608CE
S11350A0E091382991E09E0F90933829F0E090E048
S11350B0880F991F880F991F880F991F8360EE0F1F
S11350C0FF1FE954F94D8083918365C0822F0E94AC
S11350D0B608CC23B9F0E091382991E09E0F909363
S11350E03829F0E090E0880F991F880F991F880FE6
S11350F0991F87689260EE0FFF1FE954F94D808372
S1135100918349C0E091382991E09E0F909338290A
S1135110F0E090E0880F991F880F991F880F991F5E
S113512087689360EE0FFF1FE954F94D80839183E4
S113513032C0CC2381F1822F0E94B608E091382935
S113514091E09E0F90933829F0E090E0880F991F2A
S1135150880F991F880F991F8260EE0FFF1FE95473
S1135160F94D8083918317C0211109C0CC2321F00C
S113517081E08093C42B0DC01092C42B0AC021304F
S113518041F4CC2321F081E08093C42B02C010921F
S1135190C42B0E94BD08DF91CF911F910F910895F8
S11351A0F89488E08093850683E08093A50AE0EA7A
S11351B0FAE08381807C8862838382E6868384E943
S11351C087838481807E88618483789408951F9284
S11351D00F920FB60F92112408B60F9218BE09B69B
S11351E00F9219BE0BB60F921BBE2F938F939F93F2
S11351F0AF93BF93EF93FF938091A00A80935E24B3
S1135200882394F410927125833919F0843929F094
S113521008C09FE19093382407C097E09093382406
S113522003C093E090933824E091712591E09E0FA0
S113523090937125F0E0EF58FB4D80832091382442
S1135240921790F414C0E091993191E09E0F9093DD
S11352509931F0E0A82FB0E0AF58BB4D9C91E051DC
S1135260FD4D90838F5F01C080E0821760F3FF9152
S1135270EF91BF91AF919F918F912F910F900BBEA2
S11352800F9009BE0F9008BE0F900FBE0F901F9095
S113529018951F920F920FB60F92112408B60F9211
S11352A018BE0BB60F921BBE8F939F93EF93FF9381
S11352B08091402990914C24891769F0E82FF0E0FF
S11352C0EE58FA4D9081992334F08F5F80934029F2
S11352D09093A00A03C081E080933424FF91EF915E
S11352E09F918F910F900BBE0F9008BE0F900FBE31
S11352F00F901F90189597FB072E16F4009407D073
S113530077FD09D00E94982907FC05D03EF49095BA
S113531081959F4F0895709561957F4F0895EE0F85
S1135320FF1F881F8BBF0790F691E02D1BBE1994B9
S1135330AA1BBB1B51E107C0AA1FBB1FA617B707B7
S113534010F0A61BB70B881F991F5A95A9F78095D3
S10F53509095BC01CD010895F894FFCFA6
S113535C442652204169726C61622076322E3034BC
S113536C202D2030382F3230303600000000202021
S113537C20442652204169726C616220202000C0B6
S113538C002020496E697469616C697A696E6720C2
S113539C2000436F6E666967206368616E6765649D
S11353AC0080005365637572697479206F6666209A
S11353BC20202000202020202020202020202020FD
S11353CC20202020008400546F67676C652062796C
S11353DC2053454C4543540059657320202020200C
S11353EC202020202020202000204E6F2020202050
S11353FC202020202020202020004F74686572205B
S113540C436F6E6669672E20202000536176696EA7
S113541C672E2E2E00507265737320456E74657260
S113542C2F45736320004D6F64756C652078783A52
S10B543C20787878202000009C
S9030000FC
